:100000000C942A000C9447000C9447000C94470071
:100010000C9447000C9447000C9447000C94470044
:100020000C9447000C9447000C9418080C94EB07B0
:100030000C9447000C940E070C9447000C94470056
:100040000C9447000C9447000C9447000C94470014
:100050000C94470011241FBECFE5D8E0DEBFCDBF12
:1000600010E0A8E6B0E001C01D92AE36B107E1F79E
:1000700010E0A0E6B0E0E0E7FFE202C005900D92DC
:10008000A836B107D9F70E9417150C94B6170C942F
:100090000000EF92FF920F931F937B018C0120E0F1
:1000A00030E040E05FE40E94490388238CF0C801FF
:1000B000B70120E030E040E05FE40E94C1010E940F
:1000C000A9039B01AC01205030404040504806C07D
:1000D000C801B7010E94A9039B01AC01B901CA0183
:1000E0001F910F91FF90EF900895A0E0B0E0EBE733
:1000F000F0E00C947F17DC012B01FA019C91923007
:1001000008F439C1EB018881823008F433C194309E
:1001100069F4843009F02FC111969C91119789815F
:10012000981709F428C1A0E6B0E025C1843009F48D
:1001300021C18230A9F4923009F01DC19A01AD01AC
:1001400088E0EA010990AE01E90109929E0181501F
:10015000C1F7E201898111969C918923818308C1AD
:10016000923009F407C112962D903C901397EB0141
:100170008A819B811496AD90BD90CD90DC901797AD
:10018000EC80FD800E811F819101281B390BB90184
:1001900037FF04C066277727621B730B6032710537
:1001A0000CF061C0121613066CF537014801062EDB
:1001B00004C096948794779467940A94D2F721E0C8
:1001C00030E040E050E004C0220F331F441F551FB1
:1001D0006A95D2F721503040404050402E213F21B7
:1001E00040235123211531054105510521F021E01E
:1001F00030E040E050E079018A01E628F72808293C
:1002000019293CC0232BD1F1260E371E350146019A
:10021000062E04C096948794779467940A94D2F734
:1002200021E030E040E050E004C0220F331F441FC3
:10023000551F6A95D2F721503040404050402A2146
:100240003B214C215D21211531054105510521F04E
:1002500021E030E040E050E059016A01A628B728CB
:10026000C828D9280BC0821593052CF01C01AA249C
:10027000BB24650103C0EE24FF24870111969C91E5
:10028000D20111968C91981709F445C0992339F041
:10029000A80197012A193B094C095D0906C0A6016E
:1002A00095012E193F09400B510B57FD08C01182D3
:1002B0003382228224833583468357831DC081E0A5
:1002C00081833382228288279927DC01821B930B4A
:1002D000A40BB50B84839583A683B7830DC0220F2F
:1002E000331F441F551F24833583468357838281E0
:1002F000938101979383828324813581468157813D
:10030000DA01C9010197A109B1098F5F9F4FAF4F72
:10031000BF4328F30BC0918333822282EA0CFB1C7B
:100320000C1D1D1DE482F5820683178383E0808304
:10033000248135814681578157FF1AC0C901AA27F8
:1003400097FDA095BA2F81709070A070B0705695EF
:10035000479537952795822B932BA42BB52B848318
:100360009583A683B7838281938101969383828349
:10037000DF0101C0D201CD01CDB7DEB7E2E10C94BF
:100380009B17A0E2B0E0E7ECF1E00C948B176983D7
:100390007A838B839C832D833E834F835887E9E048
:1003A000EE2EF12CEC0EFD1ECE010196B7010E943F
:1003B000D2048E010F5E1F4FCE010596B8010E9438
:1003C000D2048A8991E089278A8BC701B801AE01DE
:1003D000475E5F4F0E9475000E94FD03A096E6E015
:1003E0000C94A717A0E2B0E0E8EFF1E00C948B17B3
:1003F00069837A838B839C832D833E834F835887C5
:10040000F9E0EF2EF12CEC0EFD1ECE010196B701A6
:100410000E94D2048E010F5E1F4FCE010596B801D7
:100420000E94D204C701B801AE01475E5F4F0E942F
:1004300075000E94FD03A096E6E00C94A717A0E2C9
:10044000B0E0E5E2F2E00C947F1769837A838B8356
:100450009C832D833E834F835887CE010196BE0136
:10046000675F7F4F0E94D204CE010596BE016F5E8A
:100470007F4F0E94D2049985923088F0898982301A
:10048000C8F0943019F4823051F404C0843029F457
:10049000923081F480E690E0C6C0923049F420E0CA
:1004A0009A858A89981321E02A87CE010996BBC0D4
:1004B000823049F420E09A858A89981321E02A8BBA
:1004C000CE014196B0C02D843E844F8458886D88FB
:1004D0007E888F88988CEE24FF248701AA24BB2471
:1004E000650140E050E060E070E0E0E0F0E0C10174
:1004F00081709070892BE9F0E60CF71C081D191D1E
:100500009A01AB012A0D3B1D4C1D5D1D80E090E062
:10051000A0E0B0E0E614F7040805190520F481E036
:1005200090E0A0E0B0E0BA01A901480F591F6A1F8E
:100530007B1FAA0CBB1CCC1CDD1C97FE08C081E0F5
:1005400090E0A0E0B0E0A82AB92ACA2ADB2A3196B6
:10055000E032F10549F0660C771C881C991C569412
:10056000479437942794C3CFFA85EA892B893C892D
:100570008B859C85280F391F2E5F3F4F17C0CA01FE
:1005800081709070892B61F016950795F794E79428
:1005900080E090E0A0E0B0E8E82AF92A0A2B1B2BC3
:1005A00076956795579547952F5F3F4F77FDE7CF36
:1005B0000CC0440F551F661F771F17FD4160EE0CDE
:1005C000FF1C001F111F21503040403090E05907A0
:1005D00090E0690790E4790760F32B8F3C8FDB0193
:1005E000CA018F779070A070B07080349105A1051A
:1005F000B10561F447FD0AC0E114F10401051105DC
:1006000029F0405C5F4F6F4F7F4F40781A8EFE1786
:1006100011F081E08A8F4D8F5E8F6F8F78A383E01A
:10062000898FCE0149960E94FD03A096E2E10C94C9
:100630009B17A8E1B0E0EFE1F3E00C948B1769831E
:100640007A838B839C832D833E834F83588789E0F5
:10065000E82EF12CEC0EFD1ECE010196B7010E9492
:10066000D2048E010F5E1F4FCE010596B8010E9485
:10067000D2048985823040F08989823028F0C70110
:10068000B8010E944A0501C08FEF6896E6E00C941D
:10069000A717A8E1B0E0EFE4F3E00C948B176983AF
:1006A0007A838B839C832D833E834F83588789E095
:1006B000E82EF12CEC0EFD1ECE010196B7010E9432
:1006C000D2048E010F5E1F4FCE010596B8010E9425
:1006D000D2048985823040F08989823028F0C701B0
:1006E000B8010E944A0501C08FEF6896E6E00C94BD
:1006F000A717A8E1B0E0EFE7F3E00C948B1769834C
:100700007A838B839C832D833E834F83588789E034
:10071000E82EF12CEC0EFD1ECE010196B7010E94D1
:10072000D2048E010F5E1F4FCE010596B8010E94C4
:10073000D2048985823040F08989823028F0C7014F
:10074000B8010E944A0501C081E06896E6E00C9479
:10075000A717ACE0B0E0EFEAF3E00C948F176983E1
:100760007A838B839C83CE010196BE016B5F7F4FA2
:100770000E94D2048D81823061F1823050F1843048
:1007800021F48E81882351F12EC02F81388537FDC9
:1007900020C06E812F3131051CF06623F9F023C093
:1007A0008EE190E0821B930B29853A854B855C8511
:1007B00004C056954795379527958A95D2F76623B5
:1007C000B1F050954095309521953F4F4F4F5F4F79
:1007D0000EC020E030E040E050E009C02FEF3FEFD6
:1007E0004FEF5FE704C020E030E040E050E8B9019F
:1007F000CA012C96E2E00C94AB17DF92EF92FF92C5
:100800000F931F93FC01E480F58006811781D1804E
:100810008081823048F480E090E0A0E1B0E0E82AF6
:10082000F92A0A2B1B2BA5C0843009F49FC0823003
:1008300021F4EE24FF24870105C0E114F104010531
:10084000110519F4E0E0F0E096C0628173819FEF3A
:10085000623879070CF05BC022E83FEF261B370BAC
:100860002A3131052CF020E030E040E050E02AC091
:10087000B801A701022E04C0769567955795479554
:100880000A94D2F781E090E0A0E0B0E004C0880FC5
:10089000991FAA1FBB1F2A95D2F70197A109B10979
:1008A0008E219F21A023B1230097A105B10521F03E
:1008B00081E090E0A0E0B0E09A01AB01282B392B59
:1008C0004A2B5B2BDA01C9018F779070A070B07052
:1008D00080349105A105B10539F427FF09C0205CDA
:1008E0003F4F4F4F5F4F04C0215C3F4F4F4F5F4F13
:1008F000E0E0F0E02030A0E03A07A0E04A07A0E402
:100900005A0710F0E1E0F0E079018A0127C0603871
:10091000710564F5FB01E158FF4FD801C7018F77DE
:100920009070A070B07080349105A105B10539F4C4
:10093000E7FE0DC080E490E0A0E0B0E004C08FE3EB
:1009400090E0A0E0B0E0E80EF91E0A1F1B1F17FFA1
:1009500005C016950795F794E794319687E01695AC
:100960000795F794E7948A95D1F705C0EE24FF2404
:100970008701EFEFF0E06E2F679566276795902F60
:100980009F77D794DD24D7948E2F8695492F462BB9
:10099000582F5D29B701CA011F910F91FF90EF9069
:1009A000DF900895FC01DB01408151812281622F9B
:1009B0006F7770E0221F2227221F9381892F880FD3
:1009C000822B282F30E0991F9927991F11969C930D
:1009D000119721153105A9F54115510561057105DD
:1009E00011F482E037C082E89FEF13969C938E93B8
:1009F00012979A01AB0167E0220F331F441F551F66
:100A00006A95D1F783E08C930DC0220F331F441FEA
:100A1000551F12968D919C911397019713969C9355
:100A20008E931297203080E0380780E0480780E4FA
:100A3000580758F314962D933D934D935C93179755
:100A400008952F3F310579F4411551056105710570
:100A500019F484E08C93089564FF03C081E08C93C3
:100A600012C01C9210C02F57304013963C932E9307
:100A7000129783E08C9387E0440F551F661F771F02
:100A80008A95D1F7706414964D935D936D937C9322
:100A9000179708951F93DC01FB019C91923008F495
:100AA00047C08081823008F443C0943051F41196DD
:100AB0001C91843099F58181682F70E0611B710968
:100AC0003FC0843021F0923031F48230B9F181811D
:100AD000882389F12DC011961C9111978230F1F075
:100AE00081811817D9F412962D913C911397828128
:100AF00093818217930794F028173907BCF0149656
:100B00008D919D910D90BC91A02D248135814681C0
:100B10005781281739074A075B0718F4112341F05A
:100B20000AC082179307A407B50740F4112319F0F0
:100B300061E070E005C06FEF7FEF02C060E070E041
:100B4000CB011F910895DF93CF9300D00F92CDB7C3
:100B5000DEB79B838A8319828A819B81009719F46F
:100B600081E089835AC0A0E4B0E0E0E4F0E0808155
:100B700080688C93A0E4B0E0E0E4F0E09081EA814A
:100B8000FB818081892B8C93A0E4B0E0E0E4F0E06D
:100B90009081EA81FB818181892B8C93EA81FB81A1
:100BA0008281863039F4AAE2B0E0EAE2F0E08081A6
:100BB00084608C93A0E4B0E0E0E4F0E09081EA810E
:100BC000FB818281892B8C93AAE2B0E0EAE2F0E01B
:100BD0009081EA81FB818381892B8C93A0E4B0E032
:100BE000E0E4F0E080818F778C93A9E2B0E0E9E265
:100BF000F0E02081EA81FB8184819581822B8C93B6
:100C0000A0E4B0E0E0E4F0E02081EA81FB818481AF
:100C10009581892F9927822B8C9389810F900F9032
:100C20000F90CF91DF910895DF93CF9300D00F9273
:100C3000CDB7DEB79B838A8319828A819B81009717
:100C400019F481E0898361C0A0E4B0E0E0E4F0E061
:100C5000808180688C93A0E4B0E0E0E4F0E09081D3
:100C6000EA81FB818081892B8C93A0E4B0E0E0E4F1
:100C7000F0E09081EA81FB818181892B8C93EA816C
:100C8000FB818281863039F4AAE2B0E0EAE2F0E04A
:100C9000808184608C93A0E4B0E0E0E4F0E0908197
:100CA000EA81FB818281892B8C93AAE2B0E0EAE29F
:100CB000F0E09081EA81FB818381892B8C93AAE209
:100CC000B0E0EAE2F0E0808180688C93A0E4B0E0DC
:100CD000E0E4F0E080818F778C93A9E2B0E0E9E274
:100CE000F0E02081EA81FB8184819581822B8C93C5
:100CF000A0E4B0E0E0E4F0E02081EA81FB818481BF
:100D00009581892F9927822B8C9389810F900F9041
:100D10000F90CF91DF910895DF93CF9300D00F9282
:100D2000CDB7DEB79B838A831982EBE2F0E0808146
:100D3000829586958770882F90E0817090700097DB
:100D4000A1F3AAE2B0E0EAE2F0E080818E7F8C932A
:100D50008A819B8180709170009739F0AAE2B0E09F
:100D6000EAE2F0E0808181608C93ECE2F0E08A813D
:100D7000808389810F900F900F90CF91DF9108951C
:100D8000DF93CF9300D00F92CDB7DEB79B838A83DA
:100D900019828A819B81009719F481E0898325C09B
:100DA000EBE2F0E080818823DCF7EBE2F0E0808189
:100DB000869586958695882F90E08170907088231F
:100DC00059F4EBE2F0E0808182958F70882F90E0FB
:100DD00081709070882319F081E0898306C0ECE26D
:100DE000F0E08081EA81FB81808389810F900F9000
:100DF0000F90CF91DF910895DF93CF9300D0CDB7BF
:100E0000DEB79A83898389819A8190936900809360
:100E100068000F900F90CF91DF9108951F920F926D
:100E20000FB60F9211242F933F934F935F936F93BD
:100E30007F938F939F93AF93BF93EF93FF93DF9332
:100E4000CF93CDB7DEB7E0916800F09169000995C6
:100E5000CF91DF91FF91EF91BF91AF919F918F91D2
:100E60007F916F915F914F913F912F910F900FBEA6
:100E70000F901F901895DF93CF930F92CDB7DEB7E9
:100E80008983E2E5F0E089818083A3E5B0E0E3E5D2
:100E9000F0E08081877F8C93A3E5B0E0E3E5F0E0AC
:100EA00080818F7B8C93A9E5B0E0E9E5F0E080815B
:100EB00081608C93A3E5B0E0E3E5F0E0808184609D
:100EC0008C93A3E5B0E0E3E5F0E080818D7F8C9327
:100ED000A3E5B0E0E3E5F0E0808181608C93A3E5D9
:100EE000B0E0E3E5F0E0808180618C93A3E5B0E0C1
:100EF000E3E5F0E080818F7D8C930F90CF91DF91BF
:100F00000895DF93CF930F92CDB7DEB78983ECE5D9
:100F1000F0E089818083A3E5B0E0E3E5F0E0808143
:100F200088608C93A3E5B0E0E3E5F0E080818F7BFF
:100F30008C93A9E5B0E0E9E5F0E0808182608C93D4
:100F4000A3E5B0E0E3E5F0E0808184608C93A3E565
:100F5000B0E0E3E5F0E080818D7F8C93A3E5B0E025
:100F6000E3E5F0E0808181608C930F90CF91DF9179
:100F70000895DF93CF930F92CDB7DEB78983E2E573
:100F8000F0E0898180830F90CF91DF910895DF9306
:100F9000CF9300D0CDB7DEB79A83898389819A81B8
:100FA00090936B0080936A000F900F90CF91DF9128
:100FB0000895DF93CF9300D0CDB7DEB79A838983AE
:100FC00089819A8190936D0080936C000F900F90AF
:100FD000CF91DF9108951F920F920FB60F921124B7
:100FE0002F933F934F935F936F937F938F939F9331
:100FF000AF93BF93EF93FF93DF93CF93CDB7DEB75C
:10100000E0916A00F0916B000995CF91DF91FF911B
:10101000EF91BF91AF919F918F917F916F915F9170
:101020004F913F912F910F900FBE0F901F901895E9
:101030001F920F920FB60F9211242F933F934F934D
:101040005F936F937F938F939F93AF93BF93EF9330
:10105000FF93DF93CF93CDB7DEB7E0916C00F091B3
:101060006D000995CF91DF91FF91EF91BF91AF9105
:101070009F918F917F916F915F914F913F912F91B0
:101080000F900FBE0F901F901895DF93CF93CDB7A1
:10109000DEB7AFE5B0E0EFE5F0E0808180688C93EB
:1010A000CF91DF910895DF93CF93CDB7DEB7AFE552
:1010B000B0E0EFE5F0E080818F778C93CF91DF9106
:1010C0000895DF93CF93CDB7DEB727970FB6F89487
:1010D000DEBF0FBECDBF89836A834B838981853094
:1010E00008F0F0C08A81883008F0ECC08B8188233A
:1010F00009F075C08981282F30E03F832E838E81CF
:101100009F818230910561F12E813F81233031052D
:1011100034F48E819F818130910569F0D3C02E8196
:101120003F812330310589F18E819F818430910583
:1011300009F440C0C7C0AAE3B0E0EAE3F0E0808170
:10114000482F8A81282F30E081E090E0022E02C0F3
:10115000880F991F0A94E2F7809584238C93B2C07C
:10116000A7E3B0E0E7E3F0E08081482F8A81282FF1
:1011700030E081E090E0022E02C0880F991F0A94AF
:10118000E2F7809584238C939DC0A4E3B0E0E4E370
:10119000F0E08081482F8A81282F30E081E090E0C4
:1011A000022E02C0880F991F0A94E2F780958423CB
:1011B0008C9388C0A1E3B0E0E1E3F0E08081482FA8
:1011C0008A81282F30E081E090E0022E02C0880F53
:1011D000991F0A94E2F7809584238C9373C08B81C6
:1011E000813009F06FC08981282F30E03D832C8346
:1011F0008C819D818230910551F12C813D8123307C
:10120000310534F48C819D818130910561F05AC0A3
:101210002C813D812330310571F18C819D81843099
:101220009105E9F14FC0AAE3B0E0EAE3F0E0808184
:10123000482F8A81282F30E081E090E0022E02C002
:10124000880F991F0A94E2F7842B8C933BC0A7E385
:10125000B0E0E7E3F0E08081482F8A81282F30E07A
:1012600081E090E0022E02C0880F991F0A94E2F7F5
:10127000842B8C9327C0A4E3B0E0E4E3F0E080810A
:10128000482F8A81282F30E081E090E0022E02C0B2
:10129000880F991F0A94E2F7842B8C9313C0A1E363
:1012A000B0E0E1E3F0E08081482F8A81282F30E030
:1012B00081E090E0022E02C0880F991F0A94E2F7A5
:1012C000842B8C9327960FB6F894DEBF0FBECDBF4C
:1012D000CF91DF910895DF93CF93CDB7DEB72797F6
:1012E0000FB6F894DEBF0FBECDBF89836A834B83F0
:1012F0008981853008F0F0C08A81883008F0ECC020
:101300008B81882309F075C08981282F30E03F83C5
:101310002E838E819F818230910561F12E813F81E4
:101320002330310534F48E819F818130910569F03D
:10133000D3C02E813F812330310589F18E819F8179
:101340008430910509F440C0C7C0ABE3B0E0EBE3E3
:10135000F0E08081482F8A81282F30E081E090E002
:10136000022E02C0880F991F0A94E2F78095842309
:101370008C93B2C0A8E3B0E0E8E3F0E08081482FAE
:101380008A81282F30E081E090E0022E02C0880F91
:10139000991F0A94E2F7809584238C939DC0A5E35E
:1013A000B0E0E5E3F0E08081482F8A81282F30E02B
:1013B00081E090E0022E02C0880F991F0A94E2F7A4
:1013C000809584238C9388C0A2E3B0E0E2E3F0E050
:1013D0008081482F8A81282F30E081E090E0022E22
:1013E00002C0880F991F0A94E2F7809584238C939A
:1013F00073C08B81813009F06FC08981282F30E064
:101400003D832C838C819D818230910551F12C810B
:101410003D812330310534F48C819D8181309105EB
:1014200061F05AC02C813D812330310571F18C81EE
:101430009D8184309105E9F14FC0ABE3B0E0EBE36F
:10144000F0E08081482F8A81282F30E081E090E011
:10145000022E02C0880F991F0A94E2F7842B8C9306
:101460003BC0A8E3B0E0E8E3F0E08081482F8A8148
:10147000282F30E081E090E0022E02C0880F991FF3
:101480000A94E2F7842B8C9327C0A5E3B0E0E5E350
:10149000F0E08081482F8A81282F30E081E090E0C1
:1014A000022E02C0880F991F0A94E2F7842B8C93B6
:1014B00013C0A2E3B0E0E2E3F0E08081482F8A812C
:1014C000282F30E081E090E0022E02C0880F991FA3
:1014D0000A94E2F7842B8C9327960FB6F894DEBF1C
:1014E0000FBECDBFCF91DF910895DF93CF9300D092
:1014F00000D000D0CDB7DEB78A836B8319828A8192
:10150000853008F06EC08B81883008F06AC08A810F
:10151000282F30E03E832D834D815E81423051057E
:1015200041F18D819E818330910534F42D813E817E
:101530002130310561F052C04D815E81433051054B
:1015400051F18D819E8184309105B9F147C0E9E365
:10155000F0E08081282F30E08B81882F90E0A90176
:1015600002C0559547958A95E2F7CA018170898333
:1015700035C0E6E3F0E08081282F30E08B81882FB2
:1015800090E0A90102C0559547958A95E2F7CA01F6
:101590008170898323C0E3E3F0E08081282F30E06D
:1015A0008B81882F90E0A90102C0559547958A95B7
:1015B000E2F7CA018170898311C0E0E3F0E0808125
:1015C000282F30E08B81882F90E0A90102C055952B
:1015D00047958A95E2F7CA018170898359815C83B6
:1015E00002C08FEF8C838C8126960FB6F894DEBFF5
:1015F0000FBECDBFCF91DF910895DF93CF9300D081
:1016000000D0CDB7DEB789836A838981282F30E087
:101610003C832B838B819C8182309105D9F02B8177
:101620003C812330310534F48B819C8181309105DC
:1016300061F01EC02B813C812330310581F08B810C
:101640009C818430910581F013C0EAE3F0E08A8147
:1016500080830EC0E7E3F0E08A81808309C0E4E381
:10166000F0E08A81808304C0E1E3F0E08A81808336
:101670000F900F900F900F90CF91DF910895DF930F
:10168000CF9300D000D0CDB7DEB789836A8389813C
:10169000282F30E03C832B838B819C818230910505
:1016A000D9F02B813C812330310534F48B819C812E
:1016B0008130910561F01EC02B813C8123303105C2
:1016C00081F08B819C818430910581F013C0EBE324
:1016D000F0E08A8180830EC0E8E3F0E08A818083B5
:1016E00009C0E5E3F0E08A81808304C0E2E3F0E032
:1016F0008A8180830F900F900F900F90CF91DF9190
:101700000895DF93CF9300D000D00F92CDB7DEB70E
:101710008A8319828A818530B0F58A81282F30E04A
:101720003D832C838C819D8182309105D9F02C8161
:101730003D812330310534F48C819D8181309105C8
:1017400061F01EC02C813D812330310581F08C81F8
:101750009D818430910581F013C0E9E3F0E0808140
:1017600089830EC0E6E3F0E08081898309C0E3E36A
:10177000F0E08081898304C0E0E3F0E08081898328
:1017800099819B8302C02FEF2B838B810F900F9049
:101790000F900F900F90CF91DF910895DF93CF932B
:1017A00000D000D0CDB7DEB789836A838981282F26
:1017B00030E03C832B838B819C818230910551F1F9
:1017C0002B813C812330310534F48B819C81813025
:1017D000910561F05AC02B813C812330310571F1B4
:1017E0008B819C8184309105E9F14FC0ABE3B0E07F
:1017F000EBE3F0E08081482F8A81282F30E081E000
:1018000090E0022E02C0880F991F0A94E2F7842705
:101810008C933BC0A8E3B0E0E8E3F0E08081482F80
:101820008A81282F30E081E090E0022E02C0880FEC
:10183000991F0A94E2F784278C9327C0A5E3B0E0B0
:10184000E5E3F0E08081482F8A81282F30E081E0B5
:1018500090E0022E02C0880F991F0A94E2F78427B5
:101860008C9313C0A2E3B0E0E2E3F0E08081482F64
:101870008A81282F30E081E090E0022E02C0880F9C
:10188000991F0A94E2F784278C930F900F900F9082
:101890000F90CF91DF910895DF93CF9300D00F92F7
:1018A000CDB7DEB789838981282F30E03B832A8337
:1018B0008A819B8182309105F1F02A813B8123301E
:1018C000310534F48A819B818130910561F02AC011
:1018D0002A813B8123303105B1F08A819B8184309C
:1018E0009105C9F01FC0ABE3B0E0EBE3F0E080810D
:1018F00080958C9317C0A8E3B0E0E8E3F0E0808126
:1019000080958C930FC0A5E3B0E0E5E3F0E0808123
:1019100080958C9307C0A2E3B0E0E2E3F0E0808121
:1019200080958C930F900F900F90CF91DF91089539
:10193000DF93CF93CDB7DEB7A6E2B0E0E6E2F0E00A
:10194000808180688C93A7E2B0E0E7E2F0E08081DC
:1019500080648C93A7E2B0E0E7E2F0E080818F77CB
:101960008C93A7E2B0E0E7E2F0E080818F7D8C937A
:10197000A6E2B0E0E6E2F0E0808181608C93A6E22E
:10198000B0E0E6E2F0E0808182608C93A6E2B0E015
:10199000E6E2F0E0808184608C93CF91DF9108953E
:1019A000DF93CF93CDB7DEB7A6E2B0E0E6E2F0E09A
:1019B000808180688C93A7E2B0E0E7E2F0E080816C
:1019C00080648C93A7E2B0E0E7E2F0E080818F775B
:1019D0008C93A7E2B0E0E7E2F0E0808180628C9334
:1019E000A6E2B0E0E6E2F0E0808181608C93A6E2BE
:1019F000B0E0E6E2F0E0808182608C93A6E2B0E0A5
:101A0000E6E2F0E080818B7F8C93CF91DF910895A7
:101A1000DF93CF9300D00F92CDB7DEB78B838B814E
:101A20008F718B83A7E2B0E0E7E2F0E08081807EF7
:101A30008C93A7E2B0E0E7E2F0E090818B81892B04
:101A40008C93A6E2B0E0E6E2F0E0808180648C93C3
:101A5000E6E2F0E0808182958F70882F90E08170BF
:101A600090700097A9F3E4E2F0E0808191819A837D
:101A7000898389819A810F900F900F90CF91DF9188
:101A80000895DF93CF930F92CDB7DEB7898384E0BB
:101A900065E040E00E946B0984E066E040E00E945F
:101AA0006B0984E067E041E00E946B0983E0698193
:101AB0000E943F0B84E067E040E00E946B090F90BA
:101AC000CF91DF910895DF93CF930F92CDB7DEB71B
:101AD000898384E065E041E00E946B0984E066E070
:101AE00040E00E946B0984E067E041E00E946B09DE
:101AF00083E069810E943F0B84E067E040E00E9440
:101B00006B090F90CF91DF9108950F931F93DF938F
:101B1000CF93CDB7DEB7C654D0400FB6F894DEBF32
:101B20000FBECDBF83E06FEF0E94FD0A84E065E049
:101B300041E00E94610884E066E041E00E946108A3
:101B400084E067E041E00E946108FE01ED5BFF4F29
:101B500080E090E0ACE0B2E480839183A283B38321
:101B60008E01015C1F4FFE01ED5BFF4F60817181B3
:101B70008281938120E030E04AEF54E40E941F020A
:101B8000DC01CB01F80180839183A283B383FE0142
:101B9000FF96608171818281938120E030E040E88E
:101BA0005FE30E94790388232CF481E090E09EAFEC
:101BB0008DAF46C0FE01FF96608171818281938165
:101BC00020E03FEF4FE757E40E941903181664F531
:101BD000FE01ED5BFF4F608171818281938120E086
:101BE00030E040E251E40E941F02DC01CB01BC0165
:101BF000CD010E944900DC01CB019EAF8DAF0FC02B
:101C000088EC90E09CAF8BAF8BAD9CAD0197F1F76A
:101C10009CAF8BAF8DAD9EAD01979EAF8DAF8DAD5F
:101C20009EAD009769F716C0FE01FF966081718135
:101C3000828193810E944900DC01CB019EAF8DAF70
:101C40008DAD9EAD9AAF89AF89AD9AAD0197F1F791
:101C50009AAF89AF88E30E94410D80E090E0A0E850
:101C6000BFE38DAB9EABAFABB8AF6DA97EA98FA91B
:101C700098AD20E030E04AEF54E40E941F02DC01FE
:101C8000CB0189AB9AABABABBCAB69A97AA98BA9E9
:101C90009CA920E030E040E85FE30E9479038823BC
:101CA0002CF481E090E098AB8FA73FC069A97AA996
:101CB0008BA99CA920E03FEF4FE757E40E9419034E
:101CC00018164CF56DA97EA98FA998AD20E030E0DB
:101CD00040E251E40E941F02DC01CB01BC01CD01B6
:101CE0000E944900DC01CB0198AB8FA70FC088ECA4
:101CF00090E09EA78DA78DA59EA50197F1F79EA7C1
:101D00008DA78FA598A9019798AB8FA78FA598A9A4
:101D1000009769F714C069A97AA98BA99CA90E94A8
:101D20004900DC01CB0198AB8FA78FA598A99CA790
:101D30008BA78BA59CA50197F1F79CA78BA78EE09D
:101D40000E94410D80E090E0A0E8BFE38FA398A738
:101D5000A9A7BAA76FA178A589A59AA520E030E028
:101D60004AEF54E40E941F02DC01CB018BA39CA329
:101D7000ADA3BEA36BA17CA18DA19EA120E030E00C
:101D800040E85FE30E94790388232CF481E090E02F
:101D90009AA389A33FC06BA17CA18DA19EA120E045
:101DA0003FEF4FE757E40E94190318164CF56FA157
:101DB00078A589A59AA520E030E040E251E40E9490
:101DC0001F02DC01CB01BC01CD010E944900DC01F6
:101DD000CB019AA389A30FC088EC90E098A38F8FC2
:101DE0008F8D98A10197F1F798A38F8F89A19AA160
:101DF00001979AA389A389A19AA1009769F714C0B2
:101E00006BA17CA18DA19EA10E944900DC01CB01A8
:101E10009AA389A389A19AA19E8F8D8F8D8D9E8D66
:101E20000197F1F79E8F8D8F81E00E94410D80E038
:101E300090E0A0E0B0E4898F9A8FAB8FBC8F698D62
:101E40007A8D8B8D9C8D20E030E04AEF54E40E9427
:101E50001F02DC01CB018D8B9E8BAF8BB88F6D8900
:101E60007E898F89988D20E030E040E85FE30E9412
:101E7000790388232CF481E090E09C8B8B8B3FC00E
:101E80006D897E898F89988D20E03FEF4FE757E479
:101E90000E94190318164CF5698D7A8D8B8D9C8DD7
:101EA00020E030E040E251E40E941F02DC01CB015F
:101EB000BC01CD010E944900DC01CB019C8B8B8BC6
:101EC0000FC088EC90E09A8B898B89899A89019759
:101ED000F1F79A8B898B8B899C8901979C8B8B8BD3
:101EE0008B899C89009769F714C06D897E898F89D9
:101EF000988D0E944900DC01CB019C8B8B8B8B89D8
:101F00009C89988B8F878F8598890197F1F7988B9B
:101F10008F8786E00E94410D80E090E0A0E8BFE35B
:101F20008B879C87AD87BE876B857C858D859E85DD
:101F300020E030E04AEF54E40E941F02DC01CB01B4
:101F40008F839887A987BA876F81788589859A85D5
:101F500020E030E040E85FE30E94790388232CF41E
:101F600081E090E09E838D833FC06F817885898575
:101F70009A8520E03FEF4FE757E40E9419031816B7
:101F80004CF56B857C858D859E8520E030E040E2B8
:101F900051E40E941F02DC01CB01BC01CD010E9473
:101FA0004900DC01CB019E838D830FC088EC90E05B
:101FB0009C838B838B819C810197F1F79C838B831E
:101FC0008D819E8101979E838D838D819E81009757
:101FD00069F714C06F81788589859A850E944900C8
:101FE000DC01CB019E838D838D819E819A838983C1
:101FF00089819A810197F1F79A838983CA5BDF4FC0
:102000000FB6F894DEBF0FBECDBFCF91DF911F9109
:102010000F910895DF93CF9300D0CDB7DEB79A83A9
:1020200089830AC0E981FA8180810E94630D8981D8
:102030009A8101969A838983E981FA818081882334
:1020400089F70F900F90CF91DF910895EF92FF9253
:102050000F931F93DF93CF93CDB7DEB728970FB6BB
:10206000F894DEBF0FBECDBF6D837E838F839887CC
:1020700082E090E0A0E0B0E089839A83AB83BC83E8
:1020800036C089819A81AB81BC812AE030E040E092
:1020900050E0BC01CD010E943E177B018C018D8177
:1020A0009E81AF81B8852AE030E040E050E0BC017D
:1020B000CD010E945D17DC01CB018E0D9F1DA01F7D
:1020C000B11F89839A83AB83BC838D819E81AF814D
:1020D000B8852AE030E040E050E0BC01CD010E942C
:1020E0005D17DA01C9018D839E83AF83B8878D8127
:1020F0009E81AF81B8850097A105B10511F6898150
:102100009A81AB81BC812AE030E040E050E0BC0124
:10211000CD010E945D17DC01CB01805D0E94630D43
:1021200089819A81AB81BC812AE030E040E050E0B7
:10213000BC01CD010E945D17DA01C90189839A8330
:10214000AB83BC8389819A81AB81BC81823091054C
:10215000A105B105A1F628960FB6F894DEBF0FBE13
:10216000CDBFCF91DF911F910F91FF90EF90089518
:10217000DF93CF9300D00F92CDB7DEB78A836B8306
:102180008B818031B8F48A818230A0F48A81882FD3
:1021900090E00296002496958795079496958795EA
:1021A0000794982F802D982F8B81890F898389819F
:1021B0000E94410D0F900F900F90CF91DF910895E5
:1021C000DF93CF9300D000D000D0CDB7DEB79C8393
:1021D0008B836D834E831A828D81882311F419823B
:1021E00005C08D81813011F481E089838D816E81FC
:1021F0000E94B81090C08D81882F90E0AC0142956C
:102200005295507F5427407F54278E81282F30E0ED
:102210008A81882F90E0820F931F840F951F803151
:1022200091057CF48A81282F30E08B819C81FC0110
:10223000E20FF31F80810E94630D8A818F5F8A8382
:102240006AC08D81882F90E0AC0142955295507FF5
:102250005427407F54278E81282F30E08A81882F91
:1022600090E0820F931F840F951F8031910569F4D0
:102270008981882351F481E060E00E94B81081E0F8
:10228000898381E08D831E8246C08D81882F90E0F6
:10229000AC0142955295507F5427407F54278E8140
:1022A000282F30E08A81882F90E0820F931F840FBF
:1022B000951F803291057CF58981813061F58A8195
:1022C000282F30E08B819C81FC01E20FF31F80817D
:1022D0000E94630D8A818F5F8A838D81882F90E0B1
:1022E000AC0142955295507F5427407F54278E81F0
:1022F000282F30E08A81882F90E0820F931F840F6F
:10230000951F8032910539F480E060E00E94B8109A
:102310001D821E8219828A81282F30E08B819C8148
:10232000FC01E20FF31F80818823C1F08D81882F8B
:1023300090E0AC0142955295507F5427407F54273E
:102340008E81282F30E08A81882F90E0820F931FA2
:10235000840F951F803291050CF44DCF26960FB651
:10236000F894DEBF0FBECDBFCF91DF910895DF930C
:10237000CF93CDB7DEB764970FB6F894DEBF0FBE2C
:10238000CDBF9B8B8A8B6C8B8C89883008F09AC070
:102390008C89882F90E00896880F991F880F991FC5
:1023A000880F991F898B89890E94410D188A1F8681
:1023B0000FC02F8538898A899B89FC01E20FF31FA2
:1023C00080810E94630D8F8598890196988B8F87F5
:1023D0008F8598898830910564F382E00E94410DD1
:1023E00080E090E0A0E0B0E48B879C87AD87BE875B
:1023F0006B857C858D859E8520E030E04AEF54E436
:102400000E941F02DC01CB018F839887A987BA87BE
:102410006F81788589859A8520E030E040E85FE328
:102420000E94790388232CF481E090E09E838D83C1
:102430003FC06F81788589859A8520E03FEF4FE71F
:1024400057E40E94190318164CF56B857C858D8521
:102450009E8520E030E040E251E40E941F02DC0152
:10246000CB01BC01CD010E944900DC01CB019E8360
:102470008D830FC088EC90E09C838B838B819C8143
:102480000197F1F79C838B838D819E8101979E83B9
:102490008D838D819E81009769F714C06F81788547
:1024A00089859A850E944900DC01CB019E838D833A
:1024B0008D819E819A83898389819A810197F1F721
:1024C0009A83898364960FB6F894DEBF0FBECDBFA2
:1024D000CF91DF910895DF93CF9300D00F92CDB7C6
:1024E000DEB789836A834B838A816B810E94B8102F
:1024F00089810E94630D0F900F900F90CF91DF9113
:102500000895DF93CF93CDB7DEB7AE970FB6F894AB
:10251000DEBF0FBECDBF9EA78DA71CA61BA684C085
:102520008DA59EA560E040E00E94E0108CE10E9435
:10253000410D80E090E0AAE7B3E48FA398A7A9A794
:10254000BAA76FA178A589A59AA520E030E04AEF47
:1025500054E40E941F02DC01CB018BA39CA3ADA31A
:10256000BEA36BA17CA18DA19EA120E030E040E83C
:102570005FE30E94790388232CF481E090E09AA322
:1025800089A33FC06BA17CA18DA19EA120E03FEF5C
:102590004FE757E40E94190318164CF56FA178A570
:1025A00089A59AA520E030E040E251E40E941F0294
:1025B000DC01CB01BC01CD010E944900DC01CB0153
:1025C0009AA389A30FC088EC90E098A38F8F8F8D7A
:1025D00098A10197F1F798A38F8F89A19AA10197EC
:1025E0009AA389A389A19AA1009769F714C06BA146
:1025F0007CA18DA19EA10E944900DC01CB019AA380
:1026000089A389A19AA19E8F8D8F8D8D9E8D019713
:10261000F1F79E8F8D8F8BA58F5F8BA78BA5803158
:1026200019F41BA681E08CA78CA5882309F478CF28
:1026300081E00E94410D80E090E0A0E0B0E4898F4D
:102640009A8FAB8FBC8F698D7A8D8B8D9C8D20E09E
:1026500030E04AEF54E40E941F02DC01CB018D8B75
:102660009E8BAF8BB88F6D897E898F89988D20E086
:1026700030E040E85FE30E94790388232CF481E096
:1026800090E09C8B8B8B3FC06D897E898F89988D64
:1026900020E03FEF4FE757E40E94190318164CF56E
:1026A000698D7A8D8B8D9C8D20E030E040E251E485
:1026B0000E941F02DC01CB01BC01CD010E94490038
:1026C000DC01CB019C8B8B8B0FC088EC90E09A8B4C
:1026D000898B89899A890197F1F79A8B898B8B89E4
:1026E0009C8901979C8B8B8B8B899C89009769F7C0
:1026F00098C06D897E898F89988D0E944900DC0180
:10270000CB019C8B8B8B8B899C89988B8F878F853A
:1027100098890197F1F7988B8F8783C08DA59EA527
:1027200061E040E00E94E0108CE10E94410D80E0F9
:1027300090E0AAE7B3E48B879C87AD87BE876B8563
:102740007C858D859E8520E030E04AEF54E40E9430
:102750001F02DC01CB018F839887A987BA876F811D
:10276000788589859A8520E030E040E85FE30E9423
:10277000790388232CF481E090E09E838D833FC011
:102780006F81788589859A8520E03FEF4FE757E490
:102790000E94190318164CF56B857C858D859E85E6
:1027A00020E030E040E251E40E941F02DC01CB0156
:1027B000BC01CD010E944900DC01CB019E838D83C9
:1027C0000FC088EC90E09C838B838B819C81019768
:1027D000F1F79C838B838D819E8101979E838D83EE
:1027E0008D819E81009769F714C06F8178858985F6
:1027F0009A850E944900DC01CB019E838D838D81E7
:102800009E819A83898389819A810197F1F79A83BE
:1028100089838BA58F5F8BA78BA5803111F41BA6B5
:102820001CA68CA5813009F479CFFECEDF93CF931F
:1028300000D0CDB7DEB719824CC0EAE3F0E0898161
:10284000282F30E080E190E002C0880F991F2A9580
:10285000E2F78083EBE3F0E08981282F30E080E12C
:1028600090E0022E02C0880F991F0A94E2F780952B
:1028700080831A8228C0E9E3F0E08081282F30E0CD
:102880008A81882F90E0A90102C0559547958A95C5
:10289000E2F7CA0181709070009791F48A81882FC5
:1028A00090E0880F991F880F991F982F8981890FB1
:1028B0008F5F0E946E140F900F90CF91DF9108955B
:1028C0008A818F5F8A838A818430A8F289818F5FB1
:1028D00089838981843008F4B0CFADCFDF93CF9363
:1028E00000D000D00F92CDB7DEB789838981282F21
:1028F00030E03C832B838B819C818830910509F4E7
:1029000070C02B813C81293031055CF58B819C8125
:102910008430910509F459C02B813C812530310563
:102920009CF48B819C818230910509F448C02B81F5
:102930003C81233031050CF045C08B819C81813076
:10294000910509F439C067C02B813C8126303105DF
:1029500009F441C08B819C81873091050CF03EC009
:1029600037C02B813C812C30310509F446C08B8166
:102970009C818D3091055CF42B813C812A3031059E
:10298000B1F18B819C818B309105A4F52DC02B81F9
:102990003C812E303105B9F18B819C818E309105BF
:1029A0007CF12B813C812F30310579F18B819C8129
:1029B0008031910569F12FC094E59A832DC028E0FC
:1029C0002A832AC039E03A8327C08FE28A8324C051
:1029D0009CE49A8321C02FE42A831EC036E43A8304
:1029E0001BC08AE28A8318C091E49A8315C022E44E
:1029F0002A8312C033E43A830FC08DE28A830CC06D
:102A000093E69A8309C01A8207C02DE32A8304C083
:102A10003BE23A8301C002C08A818D838D810F9091
:102A20000F900F900F900F90CF91DF910895DF934B
:102A3000CF93CDB7DEB7C054D0400FB6F894DEBF09
:102A40000FBECDBF0E94850D82E060E041E00E9494
:102A5000610882E060E040E00E946B0984E061E090
:102A600041E00E94610884E061E040E00E946B095F
:102A700084E060E040E00E94610884E060E041E0C2
:102A80000E946B0987E690E0FE01FF9691838083A8
:102A900086E08DAF88E08EAF1CAE1BAE0E94161490
:102AA0008AAF80E090E0AAE7B3E48DAB9EABAFAB1A
:102AB000B8AF6DA97EA98FA998AD20E030E04AEFAC
:102AC00054E40E941F02DC01CB0189AB9AABABAB93
:102AD000BCAB69A97AA98BA99CA920E030E040E8A9
:102AE0005FE30E94790388232CF481E090E098ABA7
:102AF0008FA73FC069A97AA98BA99CA920E03FEFC5
:102B00004FE757E40E94190318164CF56DA97EA9EA
:102B10008FA998AD20E030E040E251E40E941F020E
:102B2000DC01CB01BC01CD010E944900DC01CB01DD
:102B300098AB8FA70FC088EC90E09EA78DA78DA5BE
:102B40009EA50197F1F79EA78DA78FA598A901973C
:102B500098AB8FA78FA598A9009769F714C069A9AA
:102B60007AA98BA99CA90E944900DC01CB0198ABF2
:102B70008FA78FA598A99CA78BA78BA59CA501972C
:102B8000F1F79CA78BA7CE01CB960E94A3058AAD37
:102B9000882F90E00E948C0689AF89AD882309F0C8
:102BA0007DC082E060E041E00E946B0980E090E03F
:102BB000AAE7B4E48FA398A7A9A7BAA76FA178A59D
:102BC00089A59AA520E030E04AEF54E40E941F0254
:102BD000DC01CB018BA39CA3ADA3BEA36BA17CA105
:102BE0008DA19EA120E030E040E85FE30E947903E0
:102BF00088232CF481E090E09AA389A33FC06BA1C5
:102C00007CA18DA19EA120E03FEF4FE757E40E94F9
:102C1000190318164CF56FA178A589A59AA520E08F
:102C200030E040E251E40E941F02DC01CB01BC0114
:102C3000CD010E944900DC01CB019AA389A30FC0FA
:102C400088EC90E098A38F8F8F8D98A10197F1F772
:102C500098A38F8F89A19AA101979AA389A389A18B
:102C60009AA1009769F714C06BA17CA18DA19EA1C8
:102C70000E944900DC01CB019AA389A389A19AA1F2
:102C80009E8F8D8F8D8D9E8D0197F1F79E8F8D8FED
:102C900082E060E040E00E946B0905C082E060E0F5
:102CA00040E00E946B0981E00E94410D80E090E0CD
:102CB000A0E0B0E4898F9A8FAB8FBC8F698D7A8D3D
:102CC0008B8D9C8D20E030E04AEF54E40E941F027F
:102CD000DC01CB018D8B9E8BAF8BB88F6D897E898C
:102CE0008F89988D20E030E040E85FE30E9479030F
:102CF00088232CF481E090E09C8B8B8B3FC06D8906
:102D00007E898F89988D20E03FEF4FE757E40E943E
:102D1000190318164CF5698D7A8D8B8D9C8D20E0EA
:102D200030E040E251E40E941F02DC01CB01BC0113
:102D3000CD010E944900DC01CB019C8B8B8B0FC025
:102D400088EC90E09A8B898B89899A890197F1F7B1
:102D50009A8B898B8B899C8901979C8B8B8B8B8918
:102D60009C89009769F714C06D897E898F89988D39
:102D70000E944900DC01CB019C8B8B8B8B899C8949
:102D8000988B8F878F8598890197F1F7988B8F871C
:102D90008AAD0E94630D80E090E0AAEFB3E48B87D8
:102DA0009C87AD87BE876B857C858D859E8520E061
:102DB00030E04AEF54E40E941F02DC01CB018F8314
:102DC0009887A987BA876F81788589859A8520E059
:102DD00030E040E85FE30E94790388232CF481E02F
:102DE00090E09E838D833FC06F81788589859A8529
:102DF00020E03FEF4FE757E40E94190318164CF507
:102E00006B857C858D859E8520E030E040E251E435
:102E10000E941F02DC01CB01BC01CD010E944900D0
:102E2000DC01CB019E838D830FC088EC90E09C83F6
:102E30008B838B819C810197F1F79C838B838D81A0
:102E40009E8101979E838D838D819E81009769F776
:102E500025CE6F81788589859A850E944900DC019D
:102E6000CB019E838D838D819E819A838983898105
:102E70009A810197F1F79A83898310CE629FD001DE
:102E8000739FF001829FE00DF11D649FE00DF11D25
:102E9000929FF00D839FF00D749FF00D659FF00DD4
:102EA0009927729FB00DE11DF91F639FB00DE11DC1
:102EB000F91FBD01CF0111240895A1E21A2EAA1B0A
:102EC000BB1BFD010DC0AA1FBB1FEE1FFF1FA217DA
:102ED000B307E407F50720F0A21BB30BE40BF50BD7
:102EE000661F771F881F991F1A9469F76095709560
:102EF000809590959B01AC01BD01CF0108952F9263
:102F00003F924F925F926F927F928F929F92AF9279
:102F1000BF92CF92DF92EF92FF920F931F93CF93C6
:102F2000DF93CDB7DEB7CA1BDB0B0FB6F894DEBF5D
:102F30000FBECDBF09942A88398848885F846E8483
:102F40007D848C849B84AA84B984C884DF80EE80CD
:102F5000FD800C811B81AA81B981CE0FD11D0FB6D6
:102F6000F894DEBF0FBECDBFED010895F894FFCFFA
:082F7000000000000000000059
:00000001FF
