:100000000C942A000C9447000C9447000C94470071
:100010000C9447000C9447000C9447000C94470044
:100020000C9447000C9447000C9432080C9405087B
:100030000C9447000C9428070C9447000C9447003C
:100040000C9447000C9447000C9447000C94470014
:100050000C94470011241FBECFE5D8E0DEBFCDBF12
:1000600010E0A0E6B0E0E0E2FBE302C005900D92F4
:10007000A238B107D9F710E0A2E8B0E001C01D92A4
:10008000AD38B107E1F70E9409170C948E1D0C944E
:100090000000EF92FF920F931F937B018C0120E0F1
:1000A00030E040E05FE40E94490388238CF0C801FF
:1000B000B70120E030E040E05FE40E94C1010E940F
:1000C000A9039B01AC01205030404040504806C07D
:1000D000C801B7010E94A9039B01AC01B901CA0183
:1000E0001F910F91FF90EF900895A0E0B0E0EBE733
:1000F000F0E00C94571DDC012B01FA019C91923029
:1001000008F439C1EB018881823008F433C194309E
:1001100069F4843009F02FC111969C91119789815F
:10012000981709F428C1AAE7B0E025C1843009F482
:1001300021C18230A9F4923009F01DC19A01AD01AC
:1001400088E0EA010990AE01E90109929E0181501F
:10015000C1F7E201898111969C918923818308C1AD
:10016000923009F407C112962D903C901397EB0141
:100170008A819B811496AD90BD90CD90DC901797AD
:10018000EC80FD800E811F819101281B390BB90184
:1001900037FF04C066277727621B730B6032710537
:1001A0000CF061C0121613066CF537014801062EDB
:1001B00004C096948794779467940A94D2F721E0C8
:1001C00030E040E050E004C0220F331F441F551FB1
:1001D0006A95D2F721503040404050402E213F21B7
:1001E00040235123211531054105510521F021E01E
:1001F00030E040E050E079018A01E628F72808293C
:1002000019293CC0232BD1F1260E371E350146019A
:10021000062E04C096948794779467940A94D2F734
:1002200021E030E040E050E004C0220F331F441FC3
:10023000551F6A95D2F721503040404050402A2146
:100240003B214C215D21211531054105510521F04E
:1002500021E030E040E050E059016A01A628B728CB
:10026000C828D9280BC0821593052CF01C01AA249C
:10027000BB24650103C0EE24FF24870111969C91E5
:10028000D20111968C91981709F445C0992339F041
:10029000A80197012A193B094C095D0906C0A6016E
:1002A00095012E193F09400B510B57FD08C01182D3
:1002B0003382228224833583468357831DC081E0A5
:1002C00081833382228288279927DC01821B930B4A
:1002D000A40BB50B84839583A683B7830DC0220F2F
:1002E000331F441F551F24833583468357838281E0
:1002F000938101979383828324813581468157813D
:10030000DA01C9010197A109B1098F5F9F4FAF4F72
:10031000BF4328F30BC0918333822282EA0CFB1C7B
:100320000C1D1D1DE482F5820683178383E0808304
:10033000248135814681578157FF1AC0C901AA27F8
:1003400097FDA095BA2F81709070A070B0705695EF
:10035000479537952795822B932BA42BB52B848318
:100360009583A683B7838281938101969383828349
:10037000DF0101C0D201CD01CDB7DEB7E2E10C94BF
:10038000731DA0E2B0E0E7ECF1E00C94631D69831B
:100390007A838B839C832D833E834F835887E9E048
:1003A000EE2EF12CEC0EFD1ECE010196B7010E943F
:1003B000D2048E010F5E1F4FCE010596B8010E9438
:1003C000D2048A8991E089278A8BC701B801AE01DE
:1003D000475E5F4F0E9475000E94FD03A096E6E015
:1003E0000C947F1DA0E2B0E0E8EFF1E00C94631DF7
:1003F00069837A838B839C832D833E834F835887C5
:10040000F9E0EF2EF12CEC0EFD1ECE010196B701A6
:100410000E94D2048E010F5E1F4FCE010596B801D7
:100420000E94D204C701B801AE01475E5F4F0E942F
:1004300075000E94FD03A096E6E00C947F1DA0E2EB
:10044000B0E0E5E2F2E00C94571D69837A838B8378
:100450009C832D833E834F835887CE010196BE0136
:10046000675F7F4F0E94D204CE010596BE016F5E8A
:100470007F4F0E94D2049985923088F0898982301A
:10048000C8F0943019F4823051F404C0843029F457
:10049000923081F48AE790E0C6C0923049F420E0BF
:1004A0009A858A89981321E02A87CE010996BBC0D4
:1004B000823049F420E09A858A89981321E02A8BBA
:1004C000CE014196B0C02D843E844F8458886D88FB
:1004D0007E888F88988CEE24FF248701AA24BB2471
:1004E000650140E050E060E070E0E0E0F0E0C10174
:1004F00081709070892BE9F0E60CF71C081D191D1E
:100500009A01AB012A0D3B1D4C1D5D1D80E090E062
:10051000A0E0B0E0E614F7040805190520F481E036
:1005200090E0A0E0B0E0BA01A901480F591F6A1F8E
:100530007B1FAA0CBB1CCC1CDD1C97FE08C081E0F5
:1005400090E0A0E0B0E0A82AB92ACA2ADB2A3196B6
:10055000E032F10549F0660C771C881C991C569412
:10056000479437942794C3CFFA85EA892B893C892D
:100570008B859C85280F391F2E5F3F4F17C0CA01FE
:1005800081709070892B61F016950795F794E79428
:1005900080E090E0A0E0B0E8E82AF92A0A2B1B2BC3
:1005A00076956795579547952F5F3F4F77FDE7CF36
:1005B0000CC0440F551F661F771F17FD4160EE0CDE
:1005C000FF1C001F111F21503040403090E05907A0
:1005D00090E0690790E4790760F32B8F3C8FDB0193
:1005E000CA018F779070A070B07080349105A1051A
:1005F000B10561F447FD0AC0E114F10401051105DC
:1006000029F0405C5F4F6F4F7F4F40781A8EFE1786
:1006100011F081E08A8F4D8F5E8F6F8F78A383E01A
:10062000898FCE0149960E94FD03A096E2E10C94C9
:10063000731DA8E1B0E0EFE1F3E00C94631D698362
:100640007A838B839C832D833E834F83588789E0F5
:10065000E82EF12CEC0EFD1ECE010196B7010E9492
:10066000D2048E010F5E1F4FCE010596B8010E9485
:10067000D2048985823040F08989823028F0C70110
:10068000B8010E944A0501C08FEF6896E6E00C941D
:100690007F1DA8E1B0E0EFE4F3E00C94631D6983F3
:1006A0007A838B839C832D833E834F83588789E095
:1006B000E82EF12CEC0EFD1ECE010196B7010E9432
:1006C000D2048E010F5E1F4FCE010596B8010E9425
:1006D000D2048985823040F08989823028F0C701B0
:1006E000B8010E944A0501C08FEF6896E6E00C94BD
:1006F0007F1DA8E1B0E0EFE7F3E00C94631D698390
:100700007A838B839C832D833E834F83588789E034
:10071000E82EF12CEC0EFD1ECE010196B7010E94D1
:10072000D2048E010F5E1F4FCE010596B8010E94C4
:10073000D2048985823040F08989823028F0C7014F
:10074000B8010E944A0501C081E06896E6E00C9479
:100750007F1DACE0B0E0EFEAF3E00C94671D698325
:100760007A838B839C83CE010196BE016B5F7F4FA2
:100770000E94D2048D81823061F1823050F1843048
:1007800021F48E81882351F12EC02F81388537FDC9
:1007900020C06E812F3131051CF06623F9F023C093
:1007A0008EE190E0821B930B29853A854B855C8511
:1007B00004C056954795379527958A95D2F76623B5
:1007C000B1F050954095309521953F4F4F4F5F4F79
:1007D0000EC020E030E040E050E009C02FEF3FEFD6
:1007E0004FEF5FE704C020E030E040E050E8B9019F
:1007F000CA012C96E2E00C94831DDF92EF92FF92E7
:100800000F931F93FC01E480F58006811781D1804E
:100810008081823048F480E090E0A0E1B0E0E82AF6
:10082000F92A0A2B1B2BA5C0843009F49FC0823003
:1008300021F4EE24FF24870105C0E114F104010531
:10084000110519F4E0E0F0E096C0628173819FEF3A
:10085000623879070CF05BC022E83FEF261B370BAC
:100860002A3131052CF020E030E040E050E02AC091
:10087000B801A701022E04C0769567955795479554
:100880000A94D2F781E090E0A0E0B0E004C0880FC5
:10089000991FAA1FBB1F2A95D2F70197A109B10979
:1008A0008E219F21A023B1230097A105B10521F03E
:1008B00081E090E0A0E0B0E09A01AB01282B392B59
:1008C0004A2B5B2BDA01C9018F779070A070B07052
:1008D00080349105A105B10539F427FF09C0205CDA
:1008E0003F4F4F4F5F4F04C0215C3F4F4F4F5F4F13
:1008F000E0E0F0E02030A0E03A07A0E04A07A0E402
:100900005A0710F0E1E0F0E079018A0127C0603871
:10091000710564F5FB01E158FF4FD801C7018F77DE
:100920009070A070B07080349105A105B10539F4C4
:10093000E7FE0DC080E490E0A0E0B0E004C08FE3EB
:1009400090E0A0E0B0E0E80EF91E0A1F1B1F17FFA1
:1009500005C016950795F794E794319687E01695AC
:100960000795F794E7948A95D1F705C0EE24FF2404
:100970008701EFEFF0E06E2F679566276795902F60
:100980009F77D794DD24D7948E2F8695492F462BB9
:10099000582F5D29B701CA011F910F91FF90EF9069
:1009A000DF900895FC01DB01408151812281622F9B
:1009B0006F7770E0221F2227221F9381892F880FD3
:1009C000822B282F30E0991F9927991F11969C930D
:1009D000119721153105A9F54115510561057105DD
:1009E00011F482E037C082E89FEF13969C938E93B8
:1009F00012979A01AB0167E0220F331F441F551F66
:100A00006A95D1F783E08C930DC0220F331F441FEA
:100A1000551F12968D919C911397019713969C9355
:100A20008E931297203080E0380780E0480780E4FA
:100A3000580758F314962D933D934D935C93179755
:100A400008952F3F310579F4411551056105710570
:100A500019F484E08C93089564FF03C081E08C93C3
:100A600012C01C9210C02F57304013963C932E9307
:100A7000129783E08C9387E0440F551F661F771F02
:100A80008A95D1F7706414964D935D936D937C9322
:100A9000179708951F93DC01FB019C91923008F495
:100AA00047C08081823008F443C0943051F41196DD
:100AB0001C91843099F58181682F70E0611B710968
:100AC0003FC0843021F0923031F48230B9F181811D
:100AD000882389F12DC011961C9111978230F1F075
:100AE00081811817D9F412962D913C911397828128
:100AF00093818217930794F028173907BCF0149656
:100B00008D919D910D90BC91A02D248135814681C0
:100B10005781281739074A075B0718F4112341F05A
:100B20000AC082179307A407B50740F4112319F0F0
:100B300061E070E005C06FEF7FEF02C060E070E041
:100B4000CB011F910895DF93CF9300D00F92CDB7C3
:100B5000DEB79B838A8319828A819B81009719F46F
:100B600081E089835AC0A0E4B0E0E0E4F0E0808155
:100B700080688C93A0E4B0E0E0E4F0E09081EA814A
:100B8000FB818081892B8C93A0E4B0E0E0E4F0E06D
:100B90009081EA81FB818181892B8C93EA81FB81A1
:100BA0008281863039F4A0E4B0E0E0E4F0E08081B6
:100BB00084608C93A0E4B0E0E0E4F0E09081EA810E
:100BC000FB818281892B8C93AAE2B0E0EAE2F0E01B
:100BD0009081EA81FB818381892B8C93A0E4B0E032
:100BE000E0E4F0E080818F778C93A9E2B0E0E9E265
:100BF000F0E02081EA81FB8184819581822B8C93B6
:100C0000A0E4B0E0E0E4F0E02081EA81FB818481AF
:100C10009581892F9927822B8C9389810F900F9032
:100C20000F90CF91DF910895DF93CF9300D00F9273
:100C3000CDB7DEB79B838A8319828A819B81009717
:100C400019F481E0898361C0A0E4B0E0E0E4F0E061
:100C5000808180688C93A0E4B0E0E0E4F0E09081D3
:100C6000EA81FB818081892B8C93A0E4B0E0E0E4F1
:100C7000F0E09081EA81FB818181892B8C93EA816C
:100C8000FB818281863039F4A0E4B0E0E0E4F0E05A
:100C9000808184608C93A0E4B0E0E0E4F0E0908197
:100CA000EA81FB818281892B8C93AAE2B0E0EAE29F
:100CB000F0E09081EA81FB818381892B8C93AAE209
:100CC000B0E0EAE2F0E0808180688C93A0E4B0E0DC
:100CD000E0E4F0E080818F778C93A9E2B0E0E9E274
:100CE000F0E02081EA81FB8184819581822B8C93C5
:100CF000A0E4B0E0E0E4F0E02081EA81FB818481BF
:100D00009581892F9927822B8C9389810F900F9041
:100D10000F90CF91DF910895DF93CF9300D00F9282
:100D2000CDB7DEB79B838A831982EBE2F0E0808146
:100D3000829586958770882F90E0817090700097DB
:100D4000A1F3AAE2B0E0EAE2F0E080818E7F8C932A
:100D50008A819B8180709170009739F0AAE2B0E09F
:100D6000EAE2F0E0808181608C93ECE2F0E08A813D
:100D7000808389810F900F900F90CF91DF9108951C
:100D8000DF93CF9300D00F92CDB7DEB79B838A83DA
:100D900019828A819B81009719F481E0898329C097
:100DA000EBE2F0E080818823DCF7EBE2F0E0808189
:100DB000869586958695882F90E08170907088231F
:100DC00059F4EBE2F0E0808182958F70882F90E0FB
:100DD00081709070882319F081E089830AC0EA81CC
:100DE000FB819081ECE2F0E08081892BEA81FB813C
:100DF000808389810F900F900F90CF91DF9108959C
:100E0000DF93CF9300D0CDB7DEB79A838983E98192
:100E1000FA819081ECE2F0E08081892BE981FA810E
:100E200080830F900F90CF91DF910895DF93CF9340
:100E300000D0CDB7DEB79A83898389819A81909358
:100E40008300809382000F900F90CF91DF910895DF
:100E50001F920F920FB60F9211242F933F934F932F
:100E60005F936F937F938F939F93AF93BF93EF9312
:100E7000FF93DF93CF93CDB7DEB7E0918200F0917F
:100E800083000995CF91DF91FF91EF91BF91AF91D1
:100E90009F918F917F916F915F914F913F912F9192
:100EA0000F900FBE0F901F901895DF93CF930F9266
:100EB000CDB7DEB78983E2E5F0E089818083A3E5E1
:100EC000B0E0E3E5F0E08081877F8C93A3E5B0E0BC
:100ED000E3E5F0E080818F7B8C93A9E5B0E0E9E564
:100EE000F0E0808181608C93A3E5B0E0E3E5F0E081
:100EF000808184608C93A3E5B0E0E3E5F0E080813D
:100F00008D7F8C93A3E5B0E0E3E5F0E08081816024
:100F10008C93A3E5B0E0E3E5F0E0808180618C9301
:100F2000A3E5B0E0E3E5F0E080818F7D8C930F9046
:100F3000CF91DF910895DF93CF930F92CDB7DEB7B6
:100F40008983ECE5F0E089818083A3E5B0E0E3E507
:100F5000F0E0808188608C93A3E5B0E0E3E5F0E009
:100F600080818F7B8C93A9E5B0E0E9E5F0E080819A
:100F700082608C93A3E5B0E0E3E5F0E080818460DB
:100F80008C93A3E5B0E0E3E5F0E080818D7F8C9366
:100F9000A3E5B0E0E3E5F0E0808181608C930F9001
:100FA000CF91DF910895DF93CF930F92CDB7DEB746
:100FB0008983E2E5F0E0898180830F90CF91DF9112
:100FC0000895DF93CF9300D0CDB7DEB79A8389839E
:100FD00089819A8190938500809384000F900F906F
:100FE000CF91DF910895DF93CF9300D0CDB7DEB7D7
:100FF0009A83898389819A81909387008093860060
:101000000F900F90CF91DF9108951F920F920FB61E
:101010000F9211242F933F934F935F936F937F937E
:101020008F939F93AF93BF93EF93FF93DF93CF93F0
:10103000CDB7DEB7E0918400F09185000995CF919E
:10104000DF91FF91EF91BF91AF919F918F917F9130
:101050006F915F914F913F912F910F900FBE0F9025
:101060001F9018951F920F920FB60F9211242F9375
:101070003F934F935F936F937F938F939F93AF9320
:10108000BF93EF93FF93DF93CF93CDB7DEB7E0919C
:101090008600F09187000995CF91DF91FF91EF9144
:1010A000BF91AF919F918F917F916F915F914F9180
:1010B0003F912F910F900FBE0F901F901895DF93C7
:1010C000CF93CDB7DEB7AFE5B0E0EFE5F0E08081DC
:1010D00080688C93CF91DF910895DF93CF93CDB744
:1010E000DEB7AFE5B0E0EFE5F0E080818F778C937D
:1010F000CF91DF910895DF93CF93CDB7DEB72797D8
:101100000FB6F894DEBF0FBECDBF89836A834B83D1
:101110008981853008F0F0C08A81883008F0ECC001
:101120008B81882309F075C08981282F30E03F83A7
:101130002E838E819F818230910561F12E813F81C6
:101140002330310534F48E819F818130910569F01F
:10115000D3C02E813F812330310589F18E819F815B
:101160008430910509F440C0C7C0AAE3B0E0EAE3C7
:10117000F0E08081482F8A81282F30E081E090E0E4
:10118000022E02C0880F991F0A94E2F780958423EB
:101190008C93B2C0A7E3B0E0E7E3F0E08081482F92
:1011A0008A81282F30E081E090E0022E02C0880F73
:1011B000991F0A94E2F7809584238C939DC0A4E341
:1011C000B0E0E4E3F0E08081482F8A81282F30E00E
:1011D00081E090E0022E02C0880F991F0A94E2F786
:1011E000809584238C9388C0A1E3B0E0E1E3F0E034
:1011F0008081482F8A81282F30E081E090E0022E04
:1012000002C0880F991F0A94E2F7809584238C937B
:1012100073C08B81813009F06FC08981282F30E045
:101220003D832C838C819D818230910551F12C81ED
:101230003D812330310534F48C819D8181309105CD
:1012400061F05AC02C813D812330310571F18C81D0
:101250009D8184309105E9F14FC0AAE3B0E0EAE353
:10126000F0E08081482F8A81282F30E081E090E0F3
:10127000022E02C0880F991F0A94E2F7842B8C93E8
:101280003BC0A7E3B0E0E7E3F0E08081482F8A812C
:10129000282F30E081E090E0022E02C0880F991FD5
:1012A0000A94E2F7842B8C9327C0A4E3B0E0E4E334
:1012B000F0E08081482F8A81282F30E081E090E0A3
:1012C000022E02C0880F991F0A94E2F7842B8C9398
:1012D00013C0A1E3B0E0E1E3F0E08081482F8A8110
:1012E000282F30E081E090E0022E02C0880F991F85
:1012F0000A94E2F7842B8C9327960FB6F894DEBFFE
:101300000FBECDBFCF91DF910895DF93CF93CDB7BF
:10131000DEB727970FB6F894DEBF0FBECDBF898327
:101320006A834B838981853008F0F0C08A818830D8
:1013300008F0ECC08B81882309F075C08981282FC3
:1013400030E03F832E838E819F818230910561F151
:101350002E813F812330310534F48E819F8181308D
:10136000910569F0D3C02E813F812330310589F189
:101370008E819F818430910509F440C0C7C0ABE3E2
:10138000B0E0EBE3F0E08081482F8A81282F30E045
:1013900081E090E0022E02C0880F991F0A94E2F7C4
:1013A000809584238C93B2C0A8E3B0E0E8E3F0E03A
:1013B0008081482F8A81282F30E081E090E0022E42
:1013C00002C0880F991F0A94E2F7809584238C93BA
:1013D0009DC0A5E3B0E0E5E3F0E08081482F8A817D
:1013E000282F30E081E090E0022E02C0880F991F84
:1013F0000A94E2F7809584238C9388C0A2E3B0E03E
:10140000E2E3F0E08081482F8A81282F30E081E0FC
:1014100090E0022E02C0880F991F0A94E2F780958F
:1014200084238C9373C08B81813009F06FC08981D4
:10143000282F30E03D832C838C819D818230910563
:1014400051F12C813D812330310534F48C819D8113
:101450008130910561F05AC02C813D8123303105E6
:1014600071F18C819D8184309105E9F14FC0ABE32E
:10147000B0E0EBE3F0E08081482F8A81282F30E054
:1014800081E090E0022E02C0880F991F0A94E2F7D3
:10149000842B8C933BC0A8E3B0E0E8E3F0E08081CC
:1014A000482F8A81282F30E081E090E0022E02C090
:1014B000880F991F0A94E2F7842B8C9327C0A5E329
:1014C000B0E0E5E3F0E08081482F8A81282F30E00A
:1014D00081E090E0022E02C0880F991F0A94E2F783
:1014E000842B8C9313C0A2E3B0E0E2E3F0E08081B0
:1014F000482F8A81282F30E081E090E0022E02C040
:10150000880F991F0A94E2F7842B8C9327960FB6C5
:10151000F894DEBF0FBECDBFCF91DF910895DF936A
:10152000CF9300D000D000D0CDB7DEB78A836B83D5
:1015300019828A81853008F06EC08B81883008F06E
:101540006AC08A81282F30E03E832D834D815E81E1
:101550004230510541F18D819E818330910534F4F3
:101560002D813E812130310561F052C04D815E8177
:101570004330510551F18D819E8184309105B9F13F
:1015800047C0E9E3F0E08081282F30E08B81882F8D
:1015900090E0A90102C0559547958A95E2F7CA01E6
:1015A0008170898335C0E6E3F0E08081282F30E048
:1015B0008B81882F90E0A90102C0559547958A95A7
:1015C000E2F7CA018170898323C0E3E3F0E0808100
:1015D000282F30E08B81882F90E0A90102C055951B
:1015E00047958A95E2F7CA018170898311C0E0E3CB
:1015F000F0E08081282F30E08B81882F90E0A901D6
:1016000002C0559547958A95E2F7CA018170898392
:1016100059815C8302C08FEF8C838C8126960FB634
:10162000F894DEBF0FBECDBFCF91DF910895DF9359
:10163000CF9300D000D0CDB7DEB789836A8389818C
:10164000282F30E03C832B838B819C818230910555
:10165000D9F02B813C812330310534F48B819C817E
:101660008130910561F01EC02B813C812330310512
:1016700081F08B819C818430910581F013C0EAE375
:10168000F0E08A8180830EC0E7E3F0E08A81808306
:1016900009C0E4E3F0E08A81808304C0E1E3F0E084
:1016A0008A8180830F900F900F900F90CF91DF91E0
:1016B0000895DF93CF9300D000D0CDB7DEB78983F4
:1016C0006A838981282F30E03C832B838B819C8126
:1016D00082309105D9F02B813C812330310534F4DF
:1016E0008B819C818130910561F01EC02B813C81F2
:1016F0002330310581F08B819C818430910581F00C
:1017000013C0EBE3F0E08A8180830EC0E8E3F0E0F1
:101710008A81808309C0E5E3F0E08A81808304C088
:10172000E2E3F0E08A8180830F900F900F900F909A
:10173000CF91DF910895DF93CF9300D000D00F9227
:10174000CDB7DEB78A8319828A818530B0F58A8168
:10175000282F30E03D832C838C819D818230910540
:10176000D9F02C813D812330310534F48C819D8169
:101770008130910561F01EC02C813D8123303105FF
:1017800081F08C819D818430910581F013C0E9E363
:10179000F0E0808189830EC0E6E3F0E080818983F8
:1017A00009C0E3E3F0E08081898304C0E0E3F0E076
:1017B0008081898399819B8302C02FEF2B838B814A
:1017C0000F900F900F900F900F90CF91DF91089591
:1017D000DF93CF9300D000D0CDB7DEB789836A8383
:1017E0008981282F30E03C832B838B819C81823040
:1017F000910551F12B813C812330310534F48B81EB
:101800009C818130910561F05AC02B813C8123304D
:10181000310571F18B819C8184309105E9F14FC0D4
:10182000ABE3B0E0EBE3F0E08081482F8A81282F22
:1018300030E081E090E0022E02C0880F991F0A94E8
:10184000E2F784278C933BC0A8E3B0E0E8E3F0E044
:101850008081482F8A81282F30E081E090E0022E9D
:1018600002C0880F991F0A94E2F784278C9327C03F
:10187000A5E3B0E0E5E3F0E08081482F8A81282FDE
:1018800030E081E090E0022E02C0880F991F0A9498
:10189000E2F784278C9313C0A2E3B0E0E2E3F0E028
:1018A0008081482F8A81282F30E081E090E0022E4D
:1018B00002C0880F991F0A94E2F784278C930F9037
:1018C0000F900F900F90CF91DF910895DF93CF93FA
:1018D00000D00F92CDB7DEB789838981282F30E001
:1018E0003B832A838A819B8182309105F1F02A8192
:1018F0003B812330310534F48A819B81813091050D
:1019000061F02AC02A813B8123303105B1F08A8100
:101910009B8184309105C9F01FC0ABE3B0E0EBE3DD
:10192000F0E0808180958C9317C0A8E3B0E0E8E3F5
:10193000F0E0808180958C930FC0A5E3B0E0E5E3F3
:10194000F0E0808180958C9307C0A2E3B0E0E2E3F1
:10195000F0E0808180958C930F900F900F90CF9145
:10196000DF910895DF93CF93CDB7DEB7A6E2B0E065
:10197000E6E2F0E0808180688C93A7E2B0E0E7E2E5
:10198000F0E0808180648C93A7E2B0E0E7E2F0E0D1
:1019900080818F778C93A7E2B0E0E7E2F0E080816E
:1019A0008F7D8C93A6E2B0E0E6E2F0E0808181607A
:1019B0008C93A6E2B0E0E6E2F0E0808182608C9356
:1019C000A6E2B0E0E6E2F0E0808184608C93CF9103
:1019D000DF910895DF93CF93CDB7DEB7A6E2B0E0F5
:1019E000E6E2F0E0808180688C93A7E2B0E0E7E275
:1019F000F0E0808180648C93A7E2B0E0E7E2F0E061
:101A000080818F778C93A7E2B0E0E7E2F0E08081FD
:101A100080628C93A6E2B0E0E6E2F0E08081816033
:101A20008C93A6E2B0E0E6E2F0E0808182608C93E5
:101A3000A6E2B0E0E6E2F0E080818B7F8C93CF916C
:101A4000DF910895DF93CF9300D00F92CDB7DEB72B
:101A50008B838B818F718B83A7E2B0E0E7E2F0E0AC
:101A60008081807E8C93A7E2B0E0E7E2F0E0908195
:101A70008B81892B8C93A6E2B0E0E6E2F0E08081D6
:101A800080648C93E6E2F0E0808182958F70882FED
:101A900090E0817090700097A9F3E4E2F0E080811B
:101AA00091819A83898389819A810F900F900F90F9
:101AB000CF91DF910895DF93CF93CDB7DEB70E942A
:101AC000B20CCF91DF910895DF93CF9300D000D077
:101AD00000D0CDB7DEB78E838E810E94220D9D830C
:101AE0008C838C819D81CC01A0E0B0E028E833E1BB
:101AF00040E050E0BC01CD010E94021DDC01CB01A1
:101B0000072E7AE0B695A795979587957A95D1F7A0
:101B1000702D9B838A838A819B812AE030E0B90102
:101B20000E94211DCB018983898126960FB6F894E6
:101B3000DEBF0FBECDBFCF91DF910895DF93CF936E
:101B400000D0CDB7DEB71A8219820DC08981982FD7
:101B50009E5F84E0692F41E00E947B0889819A8121
:101B600001969A83898389819A818630910574F3DD
:101B70000F900F90CF91DF910895DF93CF9300D016
:101B8000CDB7DEB71A8219820DC08981982F9E5F6A
:101B900084E0692F40E00E94850989819A8101963D
:101BA0009A83898389819A818630910574F30F9095
:101BB0000F90CF91DF910895DF93CF9300D0CDB7F1
:101BC000DEB71A8219820DC08981982F9E5F84E04A
:101BD000692F41E00E94850989819A8101969A8343
:101BE000898389819A818630910574F30F900F90D3
:101BF000CF91DF910895DF93CF9300D0CDB7DEB7BB
:101C00001A8219820CC08981982F9E5F84E0692F07
:101C10000E94E80B89819A8101969A838983898140
:101C20009A81863091057CF30F900F90CF91DF91D0
:101C30000895DF93CF930F92CDB7DEB7898384E009
:101C4000698141E00E947B0884E0698141E00E9453
:101C500085090F90CF91DF910895DF93CF930F9275
:101C6000CDB7DEB7898384E0698140E00E948509B1
:101C70000F90CF91DF910895DF93CF930F92CDB75F
:101C8000DEB7898384E069810E94E80B0F90CF91D1
:101C9000DF910895DF93CF9300D00F92CDB7DEB7D9
:101CA0008A836B8319828A81898308C084E0698171
:101CB00041E00E94850989818F5F89838981482F4E
:101CC00050E08A81282F30E08B81882F90E0820FAE
:101CD000931F4817590754F30F900F900F90CF910F
:101CE000DF910895DF93CF9300D00F92CDB7DEB789
:101CF0008A836B8319828A81898308C084E0698121
:101D000041E00E9485098981815089838981482F1A
:101D100050E08A81282F30E08B81882F90E0B90134
:101D2000681B790BCB018417950744F30F900F9034
:101D30000F90CF91DF910895DF93CF9300D00F9252
:101D4000CDB7DEB78A836B8319828A81898308C005
:101D500084E0698140E00E94850989818F5F8983E1
:101D60008981482F50E08A81282F30E08B81882F8D
:101D700090E0820F931F4817590754F30F900F906C
:101D80000F90CF91DF910895DF93CF9300D00F9202
:101D9000CDB7DEB78A836B8319828A81898308C0B5
:101DA00084E0698140E00E948509898181508983AE
:101DB0008981482F50E08A81282F30E08B81882F3D
:101DC00090E0B901681B790BCB018417950744F3A8
:101DD0000F900F900F90CF91DF910895DF93CF93E5
:101DE00000D00F92CDB7DEB78A836B8319828A81C8
:101DF000898307C084E069810E94E80B89818F5F35
:101E000089838981482F50E08A81282F30E08B8197
:101E1000882F90E0820F931F481759075CF30F90AB
:101E20000F900F90CF91DF910895DF93CF9300D063
:101E30000F92CDB7DEB78A836B8319828A8189833B
:101E400007C084E069810E94E80B89818150898301
:101E50008981482F50E08A81282F30E08B81882F9C
:101E600090E0B901681B790BCB01841795074CF3FF
:101E70000F900F900F90CF91DF910895DF93CF9344
:101E8000CDB7DEB70E94B20CCF91DF910895EF92EB
:101E9000FF920F931F93DF93CF93CDB7DEB72D97AC
:101EA0000FB6F894DEBF0FBECDBF89874A875B8728
:101EB0006C877D8789850E94220D98878F832F816B
:101EC000388588E893E1AC01249FC001259F900DDF
:101ED000349F900D1124892F9927869586959E838E
:101EE0008D838D819E81CC01A0E0B0E02A853B8569
:101EF0004C855D85BC01CD010E94021D7B018C01DA
:101F000025E030E08D819E81A901481B590BCA0153
:101F10009C0140E050E0C801B7010E94351DDA0184
:101F2000C90189839A83AB83BC8389819A81AB8100
:101F3000BC81BC01CD012D960FB6F894DEBF0FBE5B
:101F4000CDBFCF91DF911F910F91FF90EF9008953A
:101F5000DF93CF930F92CDB7DEB7898381E065E041
:101F600040E00E94850981E066E040E00E9485092A
:101F700081E067E041E00E94850983E069810E9479
:101F8000590B81E067E040E00E9485090F90CF91F6
:101F9000DF910895DF93CF930F92CDB7DEB789839A
:101FA00081E065E041E00E94850981E066E040E073
:101FB0000E94850981E067E041E00E94850983E095
:101FC00069810E94590B81E067E040E00E94850929
:101FD0000F90CF91DF9108950F931F93DF93CF93CD
:101FE000CDB7DEB7C654D0400FB6F894DEBF0FBEF3
:101FF000CDBF83E06FEF0E94170B81E065E041E009
:102000000E947B0881E066E041E00E947B0881E05D
:1020100067E041E00E947B08FE01ED5BFF4F80E03E
:1020200090E0ACE0B2E480839183A283B3838E011D
:10203000015C1F4FFE01ED5BFF4F6081718182816A
:10204000938120E030E04AEF54E40E941F02DC015B
:10205000CB01F80180839183A283B383FE01FF96B5
:10206000608171818281938120E030E040E85FE30C
:102070000E94790388232CF481E090E09EAF8DAF1D
:1020800046C0FE01FF96608171818281938120E0CC
:102090003FEF4FE757E40E941903181664F5FE015D
:1020A000ED5BFF4F608171818281938120E030E0A0
:1020B00040E251E40E941F02DC01CB01BC01CD01D2
:1020C0000E944900DC01CB019EAF8DAF0FC088ECB0
:1020D00090E09CAF8BAF8BAD9CAD0197F1F79CAFBF
:1020E0008BAF8DAD9EAD01979EAF8DAF8DAD9EAD8B
:1020F000009769F716C0FE01FF96608171818281A9
:1021000093810E944900DC01CB019EAF8DAF8DAD64
:102110009EAD9AAF89AF89AD9AAD0197F1F79AAFAD
:1021200089AF88E30E94A80F80E090E0A0E8BFE3B9
:102130008DAB9EABAFABB8AF6DA97EA98FA998ADA3
:1021400020E030E04AEF54E40E941F02DC01CB01A2
:1021500089AB9AABABABBCAB69A97AA98BA99CA99B
:1021600020E030E040E85FE30E94790388232CF40C
:1021700081E090E098AB8FA73FC069A97AA98BA9AD
:102180009CA920E03FEF4FE757E40E94190318167F
:102190004CF56DA97EA98FA998AD20E030E040E212
:1021A00051E40E941F02DC01CB01BC01CD010E9461
:1021B0004900DC01CB0198AB8FA70FC088EC90E001
:1021C0009EA78DA78DA59EA50197F1F79EA78DA728
:1021D0008FA598A9019798AB8FA78FA598A900976D
:1021E00069F714C069A97AA98BA99CA90E94490022
:1021F000DC01CB0198AB8FA78FA598A99CA78BA7D3
:102200008BA59CA50197F1F79CA78BA78EE00E9458
:10221000A80F80E090E0A0E8BFE38FA398A7A9A74C
:10222000BAA76FA178A589A59AA520E030E04AEF6A
:1022300054E40E941F02DC01CB018BA39CA3ADA33D
:10224000BEA36BA17CA18DA19EA120E030E040E85F
:102250005FE30E94790388232CF481E090E09AA345
:1022600089A33FC06BA17CA18DA19EA120E03FEF7F
:102270004FE757E40E94190318164CF56FA178A593
:1022800089A59AA520E030E040E251E40E941F02B7
:10229000DC01CB01BC01CD010E944900DC01CB0176
:1022A0009AA389A30FC088EC90E098A38F8F8F8D9D
:1022B00098A10197F1F798A38F8F89A19AA101970F
:1022C0009AA389A389A19AA1009769F714C06BA169
:1022D0007CA18DA19EA10E944900DC01CB019AA3A3
:1022E00089A389A19AA19E8F8D8F8D8D9E8D019737
:1022F000F1F79E8F8D8F81E00E94A80F80E090E023
:10230000A0E0B0E4898F9A8FAB8FBC8F698D7A8DF6
:102310008B8D9C8D20E030E04AEF54E40E941F0238
:10232000DC01CB018D8B9E8BAF8BB88F6D897E8945
:102330008F89988D20E030E040E85FE30E947903C8
:1023400088232CF481E090E09C8B8B8B3FC06D89BF
:102350007E898F89988D20E03FEF4FE757E40E94F8
:10236000190318164CF5698D7A8D8B8D9C8D20E0A4
:1023700030E040E251E40E941F02DC01CB01BC01CD
:10238000CD010E944900DC01CB019C8B8B8B0FC0DF
:1023900088EC90E09A8B898B89899A890197F1F76B
:1023A0009A8B898B8B899C8901979C8B8B8B8B89D2
:1023B0009C89009769F714C06D897E898F89988DF3
:1023C0000E944900DC01CB019C8B8B8B8B899C8903
:1023D000988B8F878F8598890197F1F7988B8F87D6
:1023E00086E00E94A80F80E090E0A0E8BFE38B8722
:1023F0009C87AD87BE876B857C858D859E8520E01B
:1024000030E04AEF54E40E941F02DC01CB018F83CD
:102410009887A987BA876F81788589859A8520E012
:1024200030E040E85FE30E94790388232CF481E0E8
:1024300090E09E838D833FC06F81788589859A85E2
:1024400020E03FEF4FE757E40E94190318164CF5C0
:102450006B857C858D859E8520E030E040E251E4EF
:102460000E941F02DC01CB01BC01CD010E9449008A
:10247000DC01CB019E838D830FC088EC90E09C83B0
:102480008B838B819C810197F1F79C838B838D815A
:102490009E8101979E838D838D819E81009769F730
:1024A00014C06F81788589859A850E944900DC0176
:1024B000CB019E838D838D819E819A8389838981BF
:1024C0009A810197F1F79A838983CA5BDF4F0FB630
:1024D000F894DEBF0FBECDBFCF91DF911F910F915A
:1024E0000895DF93CF9300D0CDB7DEB79A83898369
:1024F0000AC0E981FA8180810E94CA0F89819A818C
:1025000001969A838983E981FA818081882389F7FA
:102510000F900F90CF91DF910895EF92FF920F935C
:102520001F93DF93CF93CDB7DEB728970FB6F894FC
:10253000DEBF0FBECDBF6D837E838F83988782E021
:1025400090E0A0E0B0E089839A83AB83BC8336C07F
:1025500089819A81AB81BC812AE030E040E050E083
:10256000BC01CD010E94021D7B018C018D819E81E9
:10257000AF81B8852AE030E040E050E0BC01CD01F9
:102580000E94351DDC01CB018E0D9F1DA01FB11FC8
:1025900089839A83AB83BC838D819E81AF81B8850B
:1025A0002AE030E040E050E0BC01CD010E94351D42
:1025B000DA01C9018D839E83AF83B8878D819E81A7
:1025C000AF81B8850097A105B10511F689819A817F
:1025D000AB81BC812AE030E040E050E0BC01CD019D
:1025E0000E94351DDC01CB01805D0E94CA0F8981EC
:1025F0009A81AB81BC812AE030E040E050E0BC0130
:10260000CD010E94351DDA01C90189839A83AB830C
:10261000BC8389819A81AB81BC8182309105A105FF
:10262000B105A1F628960FB6F894DEBF0FBECDBF58
:10263000CF91DF911F910F91FF90EF900895DF935D
:10264000CF9300D00F92CDB7DEB78A836B838B8197
:102650008031B8F48A818230A0F48A81882F90E09A
:1026600002960024969587950794969587950794EA
:10267000982F802D982F8B81890F898389810E94C3
:10268000A80F0F900F900F90CF91DF910895DF93D7
:10269000CF9300D000D000D0CDB7DEB79C838B8322
:1026A0006D834E831A828D81882311F4198205C0AF
:1026B0008D81813011F481E089838D816E810E944A
:1026C0001F1390C08D81882F90E0AC0142955295E8
:1026D000507F5427407F54278E81282F30E08A81F5
:1026E000882F90E0820F931F840F951F80319105F2
:1026F0007CF48A81282F30E08B819C81FC01E20FE1
:10270000F31F80810E94CA0F8A818F5F8A836AC00B
:102710008D81882F90E0AC0142955295507F5427CF
:10272000407F54278E81282F30E08A81882F90E0C7
:10273000820F931F840F951F8031910569F4898161
:10274000882351F481E060E00E941F1381E08983B7
:1027500081E08D831E8246C08D81882F90E0AC0180
:1027600042955295507F5427407F54278E81282FC1
:1027700030E08A81882F90E0820F931F840F951F8D
:10278000803291057CF58981813061F58A81282F1D
:1027900030E08B819C81FC01E20FF31F80810E945D
:1027A000CA0F8A818F5F8A838D81882F90E0AC0168
:1027B00042955295507F5427407F54278E81282F71
:1027C00030E08A81882F90E0820F931F840F951F3D
:1027D0008032910539F480E060E00E941F131D8271
:1027E0001E8219828A81282F30E08B819C81FC0116
:1027F000E20FF31F80818823C1F08D81882F90E044
:10280000AC0142955295507F5427407F54278E81CA
:10281000282F30E08A81882F90E0820F931F840F49
:10282000951F803291050CF44DCF26960FB6F89483
:10283000DEBF0FBECDBFCF91DF910895DF93CF9361
:10284000CDB7DEB764970FB6F894DEBF0FBECDBF2D
:102850009B8B8A8B6C8B8C89883008F09AC08C8912
:10286000882F90E00896880F991F880F991F880F6E
:10287000991F898B89890E94A80F188A1F860FC00B
:102880002F8538898A899B89FC01E20FF31F80819B
:102890000E94CA0F8F8598890196988B8F878F85A4
:1028A00098898830910564F382E00E94A80F80E047
:1028B00090E0A0E0B0E48B879C87AD87BE876B85F6
:1028C0007C858D859E8520E030E04AEF54E40E94AF
:1028D0001F02DC01CB018F839887A987BA876F819C
:1028E000788589859A8520E030E040E85FE30E94A2
:1028F000790388232CF481E090E09E838D833FC090
:102900006F81788589859A8520E03FEF4FE757E40E
:102910000E94190318164CF56B857C858D859E8564
:1029200020E030E040E251E40E941F02DC01CB01D4
:10293000BC01CD010E944900DC01CB019E838D8347
:102940000FC088EC90E09C838B838B819C810197E6
:10295000F1F79C838B838D819E8101979E838D836C
:102960008D819E81009769F714C06F817885898574
:102970009A850E944900DC01CB019E838D838D8165
:102980009E819A83898389819A810197F1F79A833D
:10299000898364960FB6F894DEBF0FBECDBFCF918A
:1029A000DF910895DF93CF9300D00F92CDB7DEB7BC
:1029B00089836A834B838A816B810E941F1389817B
:1029C0000E94CA0F0F900F900F90CF91DF91089542
:1029D000DF93CF93CDB7DEB7AE970FB6F894DEBFD7
:1029E0000FBECDBF9EA78DA71CA61BA684C08DA51C
:1029F0009EA560E040E00E9447138CE10E94A80F72
:102A000080E090E0AAE7B3E48FA398A7A9A7BAA7AC
:102A10006FA178A589A59AA520E030E04AEF54E49B
:102A20000E941F02DC01CB018BA39CA3ADA3BEA31C
:102A30006BA17CA18DA19EA120E030E040E85FE386
:102A40000E94790388232CF481E090E09AA389A363
:102A50003FC06BA17CA18DA19EA120E03FEF4FE77D
:102A600057E40E94190318164CF56FA178A589A5A3
:102A70009AA520E030E040E251E40E941F02DC0110
:102A8000CB01BC01CD010E944900DC01CB019AA31E
:102A900089A30FC088EC90E098A38F8F8F8D98A1A9
:102AA0000197F1F798A38F8F89A19AA101979AA313
:102AB00089A389A19AA1009769F714C06BA17CA191
:102AC0008DA19EA10E944900DC01CB019AA389A39C
:102AD00089A19AA19E8F8D8F8D8D9E8D0197F1F783
:102AE0009E8F8D8F8BA58F5F8BA78BA5803119F45F
:102AF0001BA681E08CA78CA5882309F478CF81E000
:102B00000E94A80F80E090E0A0E0B0E4898F9A8F47
:102B1000AB8FBC8F698D7A8D8B8D9C8D20E030E0E2
:102B20004AEF54E40E941F02DC01CB018D8B9E8B87
:102B3000AF8BB88F6D897E898F89988D20E030E0CA
:102B400040E85FE30E94790388232CF481E090E061
:102B50009C8B8B8B3FC06D897E898F89988D20E0FF
:102B60003FEF4FE757E40E94190318164CF5698DA3
:102B70007A8D8B8D9C8D20E030E040E251E40E9404
:102B80001F02DC01CB01BC01CD010E944900DC0128
:102B9000CB019C8B8B8B0FC088EC90E09A8B898B40
:102BA00089899A890197F1F79A8B898B8B899C89FE
:102BB00001979C8B8B8B8B899C89009769F798C0B8
:102BC0006D897E898F89988D0E944900DC01CB0137
:102BD0009C8B8B8B8B899C89988B8F878F85988911
:102BE0000197F1F7988B8F8783C08DA59EA561E033
:102BF00040E00E9447138CE10E94A80F80E090E023
:102C0000AAE7B3E48B879C87AD87BE876B857C85FD
:102C10008D859E8520E030E04AEF54E40E941F023B
:102C2000DC01CB018F839887A987BA876F8178856C
:102C300089859A8520E030E040E85FE30E947903CF
:102C400088232CF481E090E09E838D833FC06F81C8
:102C5000788589859A8520E03FEF4FE757E40E9409
:102C6000190318164CF56B857C858D859E8520E0B3
:102C700030E040E251E40E941F02DC01CB01BC01C4
:102C8000CD010E944900DC01CB019E838D830FC0E2
:102C900088EC90E09C838B838B819C810197F1F77A
:102CA0009C838B838D819E8101979E838D838D81F3
:102CB0009E81009769F714C06F81788589859A8510
:102CC0000E944900DC01CB019E838D838D819E8112
:102CD0009A83898389819A810197F1F79A838983FD
:102CE0008BA58F5F8BA78BA5803111F41BA61CA62B
:102CF0008CA5813009F479CFFECEDF93CF930F926C
:102D0000CDB7DEB7898382E061E041E00E947B08B5
:102D10008981813031F482E061E041E00E948509DF
:102D200008C08981882329F482E061E040E00E94A4
:102D300085090F90CF91DF910895DF93CF93CDB7A1
:102D4000DEB782E063E041E00E947B0882E064E05D
:102D500041E00E947B0882E065E041E00E947B0840
:102D600082E066E041E00E947B08CF91DF91089508
:102D7000DF93CF93CDB7DEB782E063E040E00E94FF
:102D8000850982E066E040E00E94850982E064E017
:102D900041E00E94850982E065E041E00E948509EA
:102DA000CF91DF910895DF93CF93CDB7DEB782E067
:102DB00064E040E00E94850982E065E040E00E9416
:102DC000850982E063E041E00E94850982E066E0D7
:102DD00041E00E948509CF91DF910895DF93CF9361
:102DE000CDB7DEB782E063E040E00E94850982E073
:102DF00064E040E00E94850982E065E040E00E94D6
:102E0000850982E066E040E00E948509CF91DF916C
:102E100008950F931F93DF93CF93CDB7DEB7CD57B0
:102E2000D0400FB6F894DEBF0FBECDBF0E94EC0FAE
:102E30000E949E0D8EEB9CE10E94E10788ED9CE1D3
:102E40000E941607FE01E858FF4F80E18383FE01D0
:102E5000E858FF4F87E690E095838483FE01E858A9
:102E6000FF4F86E08283FE01E858FF4F1182FE018A
:102E7000E858FF4F10820E945F08CE0188589F4F8C
:102E80000E941406FE01E958FF4F8DE18083FE0188
:102E9000EA58FF4F82E080830E94B20C8BE70E94C9
:102EA00055070E945F0880918B008C3309F095C113
:102EB00081E00E94A80FFE01E359FF4F80E090E0FF
:102EC000A0E0B0E480839183A283B3838E0107598D
:102ED0001F4FFE01E359FF4F608171818281938111
:102EE00020E030E04AEF54E40E941F02DC01CB01F5
:102EF000F80180839183A283B383FE01E759FF4FDA
:102F0000608171818281938120E030E040E85FE35D
:102F10000E947903882344F4FE01E959FF4F81E0C0
:102F200090E09183808364C0FE01E759FF4F608188
:102F300071818281938120E03FEF4FE757E40E9447
:102F4000190318160CF043C0FE01E359FF4F6081CE
:102F500071818281938120E030E040E251E40E945F
:102F60001F02DC01CB018E0109591F4FBC01CD01AD
:102F70000E944900DC01CB01F801918380831FC0CE
:102F8000FE01EB59FF4F88EC90E091838083FE01B6
:102F9000EB59FF4F808191810197F1F7FE01EB59C9
:102FA000FF4F91838083DE01A959BF4FFE01E9598C
:102FB000FF4F80819181019711969C938E93FE0122
:102FC000E959FF4F808191810097D1F627C08E018A
:102FD00009591F4FFE01E759FF4F608171818281BE
:102FE00093810E944900DC01CB01F8019183808329
:102FF000DE01AD59BF4FFE01E959FF4F808191813C
:103000008D939C93FE01ED59FF4F80819181019733
:10301000F1F7FE01ED59FF4F9183808310928B00F1
:10302000DE01A958BF4FFE01E958FF4F80818F5F35
:103030008C93FE01E958FF4F80818C3309F0CDC09D
:1030400081E00E94A80FFE01E15AFF4F80E090E06E
:10305000A0E0B0E480839183A283B3838E01055AFC
:103060001F4FFE01E15AFF4F608171818281938180
:1030700020E030E04AEF54E40E941F02DC01CB0163
:10308000F80180839183A283B383FE01E55AFF4F49
:10309000608171818281938120E030E040E85FE3CC
:1030A0000E947903882344F4FE01E75AFF4F81E030
:1030B00090E09183808364C0FE01E55AFF4F6081F8
:1030C00071818281938120E03FEF4FE757E40E94B6
:1030D000190318160CF043C0FE01E15AFF4F60813E
:1030E00071818281938120E030E040E251E40E94CE
:1030F0001F02DC01CB018E01075A1F4FBC01CD011D
:103100000E944900DC01CB01F801918380831FC03C
:10311000FE01E95AFF4F88EC90E091838083FE0125
:10312000E95AFF4F808191810197F1F7FE01E95A39
:10313000FF4F91838083DE01A75ABF4FFE01E75AFC
:10314000FF4F80819181019711969C938E93FE0190
:10315000E75AFF4F808191810097D1F627C08E01F9
:10316000075A1F4FFE01E55AFF4F6081718182812E
:1031700093810E944900DC01CB01F8019183808397
:10318000DE01AB5ABF4FFE01E75AFF4F80819181AC
:103190008D939C93FE01EB5AFF4F808191810197A3
:1031A000F1F7FE01EB5AFF4F91838083FE01E9584E
:1031B000FF4F1082DE01AA58BF4FFE01EA58FF4FB1
:1031C00080818F5F8C93FE01EA58FF4F80818831A8
:1031D00021F4FE01EA58FF4F108280E060E00E9477
:1031E0001F13FE01EF5AFF4F80E090E0A8E4B3E424
:1031F00080839183A283B3838E01035B1F4FFE0103
:10320000EF5AFF4F608171818281938120E030E02D
:103210004AEF54E40E941F02DC01CB01F8018083D5
:103220009183A283B383FE01E35BFF4F60817181D1
:103230008281938120E030E040E85FE30E947903DF
:10324000882344F4FE01E55BFF4F81E090E0918329
:10325000808364C0FE01E35BFF4F608171818281E6
:10326000938120E03FEF4FE757E40E9419031816BF
:103270000CF043C0FE01EF5AFF4F608171818281E3
:10328000938120E030E040E251E40E941F02DC0123
:10329000CB018E01055B1F4FBC01CD010E9449008F
:1032A000DC01CB01F801918380831FC0FE01E75B45
:1032B000FF4F88EC90E091838083FE01E75BFF4F36
:1032C000808191810197F1F7FE01E75BFF4F9183C8
:1032D0008083DE01A55BBF4FFE01E55BFF4F808170
:1032E0009181019711969C938E93FE01E55BFF4FB0
:1032F000808191810097D1F627C08E01055B1F4F19
:10330000FE01E35BFF4F60817181828193810E94A6
:103310004900DC01CB01F80191838083DE01A95BC8
:10332000BF4FFE01E55BFF4F808191818D939C93A0
:10333000FE01E95BFF4F808191810197F1F7FE016A
:10334000E95BFF4F9183808380E690E00E947112D9
:10335000FE01ED5BFF4F80E090E0A8E4B3E48083E2
:103360009183A283B3838E01015C1F4FFE01ED5B4D
:10337000FF4F608171818281938120E030E04AEFCC
:1033800054E40E941F02DC01CB01F8018083918389
:10339000A283B383FE01FF96608171818281938154
:1033A00020E030E040E85FE30E94790388232CF4BA
:1033B00081E090E09EAF8DAF46C0FE01FF96608138
:1033C00071818281938120E03FEF4FE757E40E94B3
:1033D0001903181664F5FE01ED5BFF4F60817181E2
:1033E0008281938120E030E040E251E40E941F029C
:1033F000DC01CB01BC01CD010E944900DC01CB0105
:103400009EAF8DAF0FC088EC90E09CAF8BAF8BADC3
:103410009CAD0197F1F79CAF8BAF8DAD9EAD019741
:103420009EAF8DAF8DAD9EAD009769F716C0FE01C2
:10343000FF9660817181828193810E944900DC0145
:10344000CB019EAF8DAF8DAD9EAD9AAF89AF89ADEB
:103450009AAD0197F1F79AAF89AFFE01EA58FF4F95
:103460008081882F90E0A0E0B0E0BC01CD010E94F7
:103470008D1280E090E0A8E4B3E48DAB9EABAFABDF
:10348000B8AF6DA97EA98FA998AD20E030E04AEFD2
:1034900054E40E941F02DC01CB0189AB9AABABABB9
:1034A000BCAB69A97AA98BA99CA920E030E040E8CF
:1034B0005FE30E94790388232CF481E090E098ABCD
:1034C0008FA73FC069A97AA98BA99CA920E03FEFEB
:1034D0004FE757E40E94190318164CF56DA97EA911
:1034E0008FA998AD20E030E040E251E40E941F0235
:1034F000DC01CB01BC01CD010E944900DC01CB0104
:1035000098AB8FA70FC088EC90E09EA78DA78DA5E4
:103510009EA50197F1F79EA78DA78FA598A9019762
:1035200098AB8FA78FA598A9009769F714C069A9D0
:103530007AA98BA99CA90E944900DC01CB0198AB18
:103540008FA78FA598A99CA78BA78BA59CA5019752
:10355000F1F79CA78BA788E690E00E94711280E0AB
:1035600090E0A8E4B3E48FA398A7A9A7BAA76FA196
:1035700078A589A59AA520E030E04AEF54E40E949E
:103580001F02DC01CB018BA39CA3ADA3BEA36BA147
:103590007CA18DA19EA120E030E040E85FE30E9485
:1035A000790388232CF481E090E09AA389A33FC09B
:1035B0006BA17CA18DA19EA120E03FEF4FE757E4D6
:1035C0000E94190318164CF56FA178A589A59AA534
:1035D00020E030E040E251E40E941F02DC01CB0118
:1035E000BC01CD010E944900DC01CB019AA389A353
:1035F0000FC088EC90E098A38F8F8F8D98A10197D2
:10360000F1F798A38F8F89A19AA101979AA389A313
:1036100089A19AA1009769F714C06BA17CA18DA123
:103620009EA10E944900DC01CB019AA389A389A134
:103630009AA19E8F8D8F8D8D9E8D0197F1F79E8F14
:103640008D8FFE01E958FF4F8081882F90E0A0E028
:10365000B0E0BC01CD010E948D1280E090E0A8E4B2
:10366000B3E4898F9A8FAB8FBC8F698D7A8D8B8DE8
:103670009C8D20E030E04AEF54E40E941F02DC0100
:10368000CB018D8B9E8BAF8BB88F6D897E898F8997
:10369000988D20E030E040E85FE30E9479038823C2
:1036A0002CF481E090E09C8B8B8B3FC06D897E89F0
:1036B0008F89988D20E03FEF4FE757E40E94190370
:1036C00018164CF5698D7A8D8B8D9C8D20E030E03D
:1036D00040E251E40E941F02DC01CB01BC01CD019C
:1036E0000E944900DC01CB019C8B8B8B0FC088ECC6
:1036F00090E09A8B898B89899A890197F1F79A8B47
:10370000898B8B899C8901979C8B8B8B8B899C895E
:10371000009769F714C06D897E898F89988D0E9402
:103720004900DC01CB019C8B8B8B8B899C89988B0E
:103730008F878F8598890197F1F7988B8F8788E617
:1037400090E00E94711280E090E0A8E4B3E48B87DF
:103750009C87AD87BE876B857C858D859E8520E0A7
:1037600030E04AEF54E40E941F02DC01CB018F835A
:103770009887A987BA876F81788589859A8520E09F
:1037800030E040E85FE30E94790388232CF481E075
:1037900090E09E838D833FC06F81788589859A856F
:1037A00020E03FEF4FE757E40E94190318164CF54D
:1037B0006B857C858D859E8520E030E040E251E47C
:1037C0000E941F02DC01CB01BC01CD010E94490017
:1037D000DC01CB019E838D830FC088EC90E09C833D
:1037E0008B838B819C810197F1F79C838B838D81E7
:1037F0009E8101979E838D838D819E81009769F7BD
:1038000014C06F81788589859A850E944900DC0102
:10381000CB019E838D838D819E819A83898389814B
:103820009A810197F1F79A83898380918B00882F81
:1038300090E0A0E0B0E0BC01CD010E948D1281E0DB
:103840000E94640DFE01EB58FF4F808381E060E031
:103850000E941F138AE690E00E947112FE01EB584D
:10386000FF4F8081882F90E0A0E0B0E0BC01CD0147
:103870000E948D1282E790E00E947112FE01EB58C7
:10388000FF4F8081823330F082E060E041E00E94AF
:10389000850933C080918A00813021F481E00E9443
:1038A0007D162BC080918A00882339F5FE01EB58E4
:1038B000FF4F80818F3178F0FE01EB58FF4F808100
:1038C000823348F482E060E040E00E94850981E0B4
:1038D0000E947D1612C0FE01EB58FF4F80818E3191
:1038E00048F482E060E040E00E94850980E00E94A8
:1038F0007D1603C080E00E947D1680E040E157E223
:1039000060E070E00E94470FDC01CB01FE01EF5840
:10391000FF4F80839183A283B3838091890081309C
:1039200019F40E94DC0DBFCA80918900882309F038
:10393000BACAFE01EF58FF4F80819181A281B38105
:103940008039F1E09F07F0E0AF07F0E0BF0718F41F
:103950000E94BD0DA8CAFE01EF58FF4F80819181E2
:10396000A281B381803921E0920720E0A20720E004
:10397000B20708F498CA0E94DC0D95CADF93CF9372
:10398000CDB7DEB780918C008F5F80938C008091E3
:103990008C008F3151F480918B008F5F80938B006E
:1039A00010928C008BE70E94D307CF91DF9108958E
:1039B000DF93CF93CDB7DEB788E890E00E94000791
:1039C000809188008C3421F481E08093890015C0B7
:1039D000809188008F3419F4109289000EC0809174
:1039E0008800863421F481E080938A0006C08091AB
:1039F0008800843511F410928A0010928800CF91CB
:103A0000DF910895629FD001739FF001829FE00DC6
:103A1000F11D649FE00DF11D929FF00D839FF00D4D
:103A2000749FF00D659FF00D9927729FB00DE11DF9
:103A3000F91F639FB00DE11DF91FBD01CF011124D6
:103A40000895AA1BBB1B51E107C0AA1FBB1FA617E5
:103A5000B70710F0A61BB70B881F991F5A95A9F737
:103A600080959095BC01CD010895A1E21A2EAA1B64
:103A7000BB1BFD010DC0AA1FBB1FEE1FFF1FA2171E
:103A8000B307E407F50720F0A21BB30BE40BF50B1B
:103A9000661F771F881F991F1A9469F760957095A4
:103AA000809590959B01AC01BD01CF0108952F92A7
:103AB0003F924F925F926F927F928F929F92AF92BE
:103AC000BF92CF92DF92EF92FF920F931F93CF930B
:103AD000DF93CDB7DEB7CA1BDB0B0FB6F894DEBFA2
:103AE0000FBECDBF09942A88398848885F846E84C8
:103AF0007D848C849B84AA84B984C884DF80EE8012
:103B0000FD800C811B81AA81B981CE0FD11D0FB61A
:103B1000F894DEBF0FBECDBFED010895F894FFCF3E
:103B200054696D653A2020003A0054656D703A2062
:103B30002000204320202020200000000000000062
:023B4000000083
:00000001FF
